{
  "contractName": "pricePrediction",
  "abi": [
    {
      "inputs": [
        {
          "internalType": "address",
          "name": "_oracleAddress",
          "type": "address"
        },
        {
          "internalType": "address",
          "name": "_adminAddress",
          "type": "address"
        },
        {
          "internalType": "address",
          "name": "_operatorAddress",
          "type": "address"
        },
        {
          "internalType": "uint256",
          "name": "_minBetAmount",
          "type": "uint256"
        },
        {
          "internalType": "uint256",
          "name": "_treasuryFee",
          "type": "uint256"
        }
      ],
      "stateMutability": "nonpayable",
      "type": "constructor"
    },
    {
      "anonymous": false,
      "inputs": [
        {
          "indexed": true,
          "internalType": "address",
          "name": "sender",
          "type": "address"
        },
        {
          "indexed": true,
          "internalType": "uint256",
          "name": "epoch",
          "type": "uint256"
        },
        {
          "indexed": false,
          "internalType": "uint256",
          "name": "amount",
          "type": "uint256"
        }
      ],
      "name": "BetBear",
      "type": "event"
    },
    {
      "anonymous": false,
      "inputs": [
        {
          "indexed": true,
          "internalType": "address",
          "name": "sender",
          "type": "address"
        },
        {
          "indexed": true,
          "internalType": "uint256",
          "name": "epoch",
          "type": "uint256"
        },
        {
          "indexed": false,
          "internalType": "uint256",
          "name": "amount",
          "type": "uint256"
        }
      ],
      "name": "BetBull",
      "type": "event"
    },
    {
      "anonymous": false,
      "inputs": [
        {
          "indexed": true,
          "internalType": "address",
          "name": "sender",
          "type": "address"
        },
        {
          "indexed": true,
          "internalType": "uint256",
          "name": "epoch",
          "type": "uint256"
        },
        {
          "indexed": false,
          "internalType": "uint256",
          "name": "amount",
          "type": "uint256"
        }
      ],
      "name": "Claim",
      "type": "event"
    },
    {
      "anonymous": false,
      "inputs": [
        {
          "indexed": true,
          "internalType": "uint256",
          "name": "epoch",
          "type": "uint256"
        },
        {
          "indexed": true,
          "internalType": "uint256",
          "name": "roundId",
          "type": "uint256"
        },
        {
          "indexed": false,
          "internalType": "int256",
          "name": "price",
          "type": "int256"
        }
      ],
      "name": "EndRound",
      "type": "event"
    },
    {
      "anonymous": false,
      "inputs": [
        {
          "indexed": true,
          "internalType": "uint256",
          "name": "epoch",
          "type": "uint256"
        },
        {
          "indexed": true,
          "internalType": "uint256",
          "name": "roundId",
          "type": "uint256"
        },
        {
          "indexed": false,
          "internalType": "int256",
          "name": "price",
          "type": "int256"
        }
      ],
      "name": "LockRound",
      "type": "event"
    },
    {
      "anonymous": false,
      "inputs": [
        {
          "indexed": false,
          "internalType": "address",
          "name": "admin",
          "type": "address"
        }
      ],
      "name": "NewAdminAddress",
      "type": "event"
    },
    {
      "anonymous": false,
      "inputs": [
        {
          "indexed": false,
          "internalType": "uint256",
          "name": "bufferSeconds",
          "type": "uint256"
        },
        {
          "indexed": false,
          "internalType": "uint256",
          "name": "intervalSeconds",
          "type": "uint256"
        }
      ],
      "name": "NewBufferAndIntervalSeconds",
      "type": "event"
    },
    {
      "anonymous": false,
      "inputs": [
        {
          "indexed": true,
          "internalType": "uint256",
          "name": "epoch",
          "type": "uint256"
        },
        {
          "indexed": false,
          "internalType": "uint256",
          "name": "minBetAmount",
          "type": "uint256"
        }
      ],
      "name": "NewMinBetAmount",
      "type": "event"
    },
    {
      "anonymous": false,
      "inputs": [
        {
          "indexed": false,
          "internalType": "address",
          "name": "operator",
          "type": "address"
        }
      ],
      "name": "NewOperatorAddress",
      "type": "event"
    },
    {
      "anonymous": false,
      "inputs": [
        {
          "indexed": false,
          "internalType": "address",
          "name": "oracle",
          "type": "address"
        }
      ],
      "name": "NewOracle",
      "type": "event"
    },
    {
      "anonymous": false,
      "inputs": [
        {
          "indexed": false,
          "internalType": "uint256",
          "name": "oracleUpdateAllowance",
          "type": "uint256"
        }
      ],
      "name": "NewOracleUpdateAllowance",
      "type": "event"
    },
    {
      "anonymous": false,
      "inputs": [
        {
          "indexed": true,
          "internalType": "uint256",
          "name": "epoch",
          "type": "uint256"
        },
        {
          "indexed": false,
          "internalType": "uint256",
          "name": "treasuryFee",
          "type": "uint256"
        }
      ],
      "name": "NewTreasuryFee",
      "type": "event"
    },
    {
      "anonymous": false,
      "inputs": [
        {
          "indexed": true,
          "internalType": "address",
          "name": "previousOwner",
          "type": "address"
        },
        {
          "indexed": true,
          "internalType": "address",
          "name": "newOwner",
          "type": "address"
        }
      ],
      "name": "OwnershipTransferred",
      "type": "event"
    },
    {
      "anonymous": false,
      "inputs": [
        {
          "indexed": true,
          "internalType": "uint256",
          "name": "epoch",
          "type": "uint256"
        }
      ],
      "name": "Pause",
      "type": "event"
    },
    {
      "anonymous": false,
      "inputs": [
        {
          "indexed": false,
          "internalType": "address",
          "name": "account",
          "type": "address"
        }
      ],
      "name": "Paused",
      "type": "event"
    },
    {
      "anonymous": false,
      "inputs": [
        {
          "indexed": true,
          "internalType": "uint256",
          "name": "epoch",
          "type": "uint256"
        },
        {
          "indexed": false,
          "internalType": "uint256",
          "name": "rewardBaseCalAmount",
          "type": "uint256"
        },
        {
          "indexed": false,
          "internalType": "uint256",
          "name": "rewardAmount",
          "type": "uint256"
        },
        {
          "indexed": false,
          "internalType": "uint256",
          "name": "treasuryAmount",
          "type": "uint256"
        }
      ],
      "name": "RewardsCalculated",
      "type": "event"
    },
    {
      "anonymous": false,
      "inputs": [
        {
          "indexed": true,
          "internalType": "uint256",
          "name": "epoch",
          "type": "uint256"
        }
      ],
      "name": "StartRound",
      "type": "event"
    },
    {
      "anonymous": false,
      "inputs": [
        {
          "indexed": true,
          "internalType": "address",
          "name": "token",
          "type": "address"
        },
        {
          "indexed": false,
          "internalType": "uint256",
          "name": "amount",
          "type": "uint256"
        }
      ],
      "name": "TokenRecovery",
      "type": "event"
    },
    {
      "anonymous": false,
      "inputs": [
        {
          "indexed": false,
          "internalType": "uint256",
          "name": "amount",
          "type": "uint256"
        }
      ],
      "name": "TreasuryClaim",
      "type": "event"
    },
    {
      "anonymous": false,
      "inputs": [
        {
          "indexed": true,
          "internalType": "uint256",
          "name": "epoch",
          "type": "uint256"
        }
      ],
      "name": "Unpause",
      "type": "event"
    },
    {
      "anonymous": false,
      "inputs": [
        {
          "indexed": false,
          "internalType": "address",
          "name": "account",
          "type": "address"
        }
      ],
      "name": "Unpaused",
      "type": "event"
    },
    {
      "inputs": [],
      "name": "MAX_TREASURY_FEE",
      "outputs": [
        {
          "internalType": "uint256",
          "name": "",
          "type": "uint256"
        }
      ],
      "stateMutability": "view",
      "type": "function",
      "constant": true
    },
    {
      "inputs": [],
      "name": "adminAddress",
      "outputs": [
        {
          "internalType": "address",
          "name": "",
          "type": "address"
        }
      ],
      "stateMutability": "view",
      "type": "function",
      "constant": true
    },
    {
      "inputs": [],
      "name": "currentEpoch",
      "outputs": [
        {
          "internalType": "uint256",
          "name": "",
          "type": "uint256"
        }
      ],
      "stateMutability": "view",
      "type": "function",
      "constant": true
    },
    {
      "inputs": [],
      "name": "genesisLockOnce",
      "outputs": [
        {
          "internalType": "bool",
          "name": "",
          "type": "bool"
        }
      ],
      "stateMutability": "view",
      "type": "function",
      "constant": true
    },
    {
      "inputs": [],
      "name": "genesisStartOnce",
      "outputs": [
        {
          "internalType": "bool",
          "name": "",
          "type": "bool"
        }
      ],
      "stateMutability": "view",
      "type": "function",
      "constant": true
    },
    {
      "inputs": [
        {
          "internalType": "uint256",
          "name": "",
          "type": "uint256"
        },
        {
          "internalType": "address",
          "name": "",
          "type": "address"
        }
      ],
      "name": "ledger",
      "outputs": [
        {
          "internalType": "enum pricePrediction.Position",
          "name": "position",
          "type": "uint8"
        },
        {
          "internalType": "uint256",
          "name": "amount",
          "type": "uint256"
        },
        {
          "internalType": "bool",
          "name": "claimed",
          "type": "bool"
        }
      ],
      "stateMutability": "view",
      "type": "function",
      "constant": true
    },
    {
      "inputs": [],
      "name": "minBetAmount",
      "outputs": [
        {
          "internalType": "uint256",
          "name": "",
          "type": "uint256"
        }
      ],
      "stateMutability": "view",
      "type": "function",
      "constant": true
    },
    {
      "inputs": [],
      "name": "operatorAddress",
      "outputs": [
        {
          "internalType": "address",
          "name": "",
          "type": "address"
        }
      ],
      "stateMutability": "view",
      "type": "function",
      "constant": true
    },
    {
      "inputs": [],
      "name": "oracle",
      "outputs": [
        {
          "internalType": "contract AggregatorV3Interface",
          "name": "",
          "type": "address"
        }
      ],
      "stateMutability": "view",
      "type": "function",
      "constant": true
    },
    {
      "inputs": [],
      "name": "oracleLatestRoundId",
      "outputs": [
        {
          "internalType": "uint256",
          "name": "",
          "type": "uint256"
        }
      ],
      "stateMutability": "view",
      "type": "function",
      "constant": true
    },
    {
      "inputs": [],
      "name": "owner",
      "outputs": [
        {
          "internalType": "address",
          "name": "",
          "type": "address"
        }
      ],
      "stateMutability": "view",
      "type": "function",
      "constant": true
    },
    {
      "inputs": [],
      "name": "paused",
      "outputs": [
        {
          "internalType": "bool",
          "name": "",
          "type": "bool"
        }
      ],
      "stateMutability": "view",
      "type": "function",
      "constant": true
    },
    {
      "inputs": [],
      "name": "renounceOwnership",
      "outputs": [],
      "stateMutability": "nonpayable",
      "type": "function"
    },
    {
      "inputs": [
        {
          "internalType": "uint256",
          "name": "",
          "type": "uint256"
        }
      ],
      "name": "rounds",
      "outputs": [
        {
          "internalType": "uint256",
          "name": "epoch",
          "type": "uint256"
        },
        {
          "internalType": "uint256",
          "name": "startTimestamp",
          "type": "uint256"
        },
        {
          "internalType": "uint256",
          "name": "lockTimestamp",
          "type": "uint256"
        },
        {
          "internalType": "uint256",
          "name": "closeTimestamp",
          "type": "uint256"
        },
        {
          "internalType": "int256",
          "name": "lockPrice",
          "type": "int256"
        },
        {
          "internalType": "int256",
          "name": "closePrice",
          "type": "int256"
        },
        {
          "internalType": "uint256",
          "name": "lockOracleId",
          "type": "uint256"
        },
        {
          "internalType": "uint256",
          "name": "closeOracleId",
          "type": "uint256"
        },
        {
          "internalType": "uint256",
          "name": "totalAmount",
          "type": "uint256"
        },
        {
          "internalType": "uint256",
          "name": "bullAmount",
          "type": "uint256"
        },
        {
          "internalType": "uint256",
          "name": "bearAmount",
          "type": "uint256"
        },
        {
          "internalType": "uint256",
          "name": "rewardBaseCalAmount",
          "type": "uint256"
        },
        {
          "internalType": "uint256",
          "name": "rewardAmount",
          "type": "uint256"
        },
        {
          "internalType": "bool",
          "name": "oracleCalled",
          "type": "bool"
        }
      ],
      "stateMutability": "view",
      "type": "function",
      "constant": true
    },
    {
      "inputs": [
        {
          "internalType": "address",
          "name": "newOwner",
          "type": "address"
        }
      ],
      "name": "transferOwnership",
      "outputs": [],
      "stateMutability": "nonpayable",
      "type": "function"
    },
    {
      "inputs": [],
      "name": "treasuryAmount",
      "outputs": [
        {
          "internalType": "uint256",
          "name": "",
          "type": "uint256"
        }
      ],
      "stateMutability": "view",
      "type": "function",
      "constant": true
    },
    {
      "inputs": [],
      "name": "treasuryFee",
      "outputs": [
        {
          "internalType": "uint256",
          "name": "",
          "type": "uint256"
        }
      ],
      "stateMutability": "view",
      "type": "function",
      "constant": true
    },
    {
      "inputs": [
        {
          "internalType": "address",
          "name": "",
          "type": "address"
        },
        {
          "internalType": "uint256",
          "name": "",
          "type": "uint256"
        }
      ],
      "name": "userRounds",
      "outputs": [
        {
          "internalType": "uint256",
          "name": "",
          "type": "uint256"
        }
      ],
      "stateMutability": "view",
      "type": "function",
      "constant": true
    },
    {
      "inputs": [],
      "name": "gensisStartPrediction",
      "outputs": [],
      "stateMutability": "nonpayable",
      "type": "function"
    },
    {
      "inputs": [
        {
          "internalType": "uint256",
          "name": "_epoch",
          "type": "uint256"
        }
      ],
      "name": "betBearPrediction",
      "outputs": [],
      "stateMutability": "payable",
      "type": "function",
      "payable": true
    },
    {
      "inputs": [
        {
          "internalType": "uint256",
          "name": "_epoch",
          "type": "uint256"
        }
      ],
      "name": "betBullPrediction",
      "outputs": [],
      "stateMutability": "payable",
      "type": "function",
      "payable": true
    },
    {
      "inputs": [],
      "name": "gensisLockRound",
      "outputs": [],
      "stateMutability": "nonpayable",
      "type": "function"
    },
    {
      "inputs": [],
      "name": "executeRound",
      "outputs": [],
      "stateMutability": "nonpayable",
      "type": "function"
    },
    {
      "inputs": [
        {
          "internalType": "uint256",
          "name": "_epoch",
          "type": "uint256"
        }
      ],
      "name": "getSomeAnswer",
      "outputs": [
        {
          "internalType": "uint256",
          "name": "",
          "type": "uint256"
        }
      ],
      "stateMutability": "view",
      "type": "function",
      "constant": true
    },
    {
      "inputs": [
        {
          "internalType": "uint256[]",
          "name": "_epochs",
          "type": "uint256[]"
        }
      ],
      "name": "claimReward",
      "outputs": [],
      "stateMutability": "nonpayable",
      "type": "function"
    },
    {
      "inputs": [
        {
          "internalType": "uint256",
          "name": "_epoch",
          "type": "uint256"
        }
      ],
      "name": "getOracleCalled",
      "outputs": [
        {
          "internalType": "bool",
          "name": "",
          "type": "bool"
        }
      ],
      "stateMutability": "view",
      "type": "function",
      "constant": true
    },
    {
      "inputs": [
        {
          "internalType": "uint256",
          "name": "_epoch",
          "type": "uint256"
        },
        {
          "internalType": "address",
          "name": "_user",
          "type": "address"
        }
      ],
      "name": "isClaimable",
      "outputs": [
        {
          "internalType": "bool",
          "name": "",
          "type": "bool"
        }
      ],
      "stateMutability": "view",
      "type": "function",
      "constant": true
    },
    {
      "inputs": [
        {
          "internalType": "uint256",
          "name": "_epoch",
          "type": "uint256"
        },
        {
          "internalType": "address",
          "name": "_user",
          "type": "address"
        }
      ],
      "name": "isRefundable",
      "outputs": [
        {
          "internalType": "bool",
          "name": "",
          "type": "bool"
        }
      ],
      "stateMutability": "view",
      "type": "function",
      "constant": true
    },
    {
      "inputs": [
        {
          "internalType": "address",
          "name": "user",
          "type": "address"
        }
      ],
      "name": "getUserRoundsLength",
      "outputs": [
        {
          "internalType": "uint256",
          "name": "",
          "type": "uint256"
        }
      ],
      "stateMutability": "view",
      "type": "function",
      "constant": true
    }
  ],
  "bytecode": "0x60806040526002805461ffff60a01b191690553480156200001f57600080fd5b50604051620024cd380380620024cd83398101604081905262000042916200016f565b6200004d3362000102565b6000805460ff60a01b19169055600180556103e8811115620000b55760405162461bcd60e51b815260206004820152601560248201527f54726561737572792066656520746f6f20686967680000000000000000000000604482015260640160405180910390fd5b600280546001600160a01b03199081166001600160a01b039788161790915560038054821695871695909517909455600480549094169290941691909117909155600555600655620001cc565b600080546001600160a01b038381166001600160a01b0319831681178455604051919092169283917f8be0079c531659141344cd1fd0a4f28419497f9722a3daafe3b4186f6b6457e09190a35050565b80516001600160a01b03811681146200016a57600080fd5b919050565b600080600080600060a086880312156200018857600080fd5b620001938662000152565b9450620001a36020870162000152565b9350620001b36040870162000152565b6060870151608090970151959894975095949392505050565b6122f180620001dc6000396000f3fe6080604052600436106101c25760003560e01c80638da5cb5b116100f7578063dd1f759611610095578063f2fde38b11610064578063f2fde38b14610733578063f7fdec2814610753578063fa968eea14610774578063fc6f94681461078a57600080fd5b8063dd1f759614610616578063ec32470314610636578063f1d2ad1f1461064c578063f2b3c8091461071d57600080fd5b8063c2fd7f66116100d1578063c2fd7f66146104fc578063c94c7ff4146105cd578063cc32d176146105ed578063cff30a361461060357600080fd5b80638da5cb5b1461049e57806391ab79f4146104bc578063bb79201e146104dc57600080fd5b8063715018a6116101645780637b3205f51161013e5780637b3205f5146103605780637dc0d1d014610375578063865bd86c146103955780638c65c81f146103a857600080fd5b8063715018a6146102da5780637285c58b146102ef578063766718081461034a57600080fd5b80632e145420116101a05780632e14542014610279578063368acb09146102905780635c975abb146102a6578063650ad5b4146102c557600080fd5b80630f74174f146101c7578063127effb2146101fd578063273867d414610235575b600080fd5b3480156101d357600080fd5b506002546101e890600160a01b900460ff1681565b60405190151581526020015b60405180910390f35b34801561020957600080fd5b5060045461021d906001600160a01b031681565b6040516001600160a01b0390911681526020016101f4565b34801561024157600080fd5b5061026b610250366004611f12565b6001600160a01b03166000908152600c602052604090205490565b6040519081526020016101f4565b34801561028557600080fd5b5061028e6107aa565b005b34801561029c57600080fd5b5061026b60075481565b3480156102b257600080fd5b50600054600160a01b900460ff166101e8565b3480156102d157600080fd5b5061028e6108a2565b3480156102e657600080fd5b5061028e610a2d565b3480156102fb57600080fd5b5061033b61030a366004611f34565b600a60209081526000928352604080842090915290825290208054600182015460029092015460ff91821692911683565b6040516101f493929190611f76565b34801561035657600080fd5b5061026b60085481565b34801561036c57600080fd5b5061028e610a93565b34801561038157600080fd5b5060025461021d906001600160a01b031681565b61028e6103a3366004611fae565b610c18565b3480156103b457600080fd5b506104346103c3366004611fae565b600b60208190526000918252604090912080546001820154600283015460038401546004850154600586015460068701546007880154600889015460098a0154600a8b01549b8b0154600c8c0154600d909c01549a9c999b989a979996989597949693959294919392909160ff168e565b604080519e8f5260208f019d909d529b8d019a909a5260608c019890985260808b019690965260a08a019490945260c089019290925260e088015261010087015261012086015261014085015261016084015261018083015215156101a08201526101c0016101f4565b3480156104aa57600080fd5b506000546001600160a01b031661021d565b3480156104c857600080fd5b506101e86104d7366004611f34565b610ed1565b3480156104e857600080fd5b506101e86104f7366004611f34565b61109d565b34801561050857600080fd5b5061026b610517366004611fae565b6000908152600b602081815260409283902083516101c081018552815481526001820154928101929092526002810154938201939093526003830154606082015260048301546080820152600583015460a0820152600683015460c0820152600783015460e082015260088301546101008201526009830154610120820152600a83015461014082015290820154610160820152600c8201546101808201819052600d9092015460ff1615156101a09091015290565b3480156105d957600080fd5b5061028e6105e8366004611fc7565b6111eb565b3480156105f957600080fd5b5061026b60065481565b61028e610611366004611fae565b611668565b34801561062257600080fd5b5061026b61063136600461203c565b6118ba565b34801561064257600080fd5b5061026b60095481565b34801561065857600080fd5b506101e8610667366004611fae565b6000908152600b602081815260409283902083516101c081018552815481526001820154928101929092526002810154938201939093526003830154606082015260048301546080820152600583015460a0820152600683015460c0820152600783015460e082015260088301546101008201526009830154610120820152600a83015461014082015290820154610160820152600c820154610180820152600d9091015460ff1615156101a090910181905290565b34801561072957600080fd5b5061026b6103e881565b34801561073f57600080fd5b5061028e61074e366004611f12565b6118eb565b34801561075f57600080fd5b506002546101e890600160a81b900460ff1681565b34801561078057600080fd5b5061026b60055481565b34801561079657600080fd5b5060035461021d906001600160a01b031681565b600054600160a01b900460ff16156107dd5760405162461bcd60e51b81526004016107d490612066565b60405180910390fd5b6004546001600160a01b031633146108075760405162461bcd60e51b81526004016107d490612090565b600254600160a81b900460ff16156108715760405162461bcd60e51b815260206004820152602760248201527f596f752063616e206f6e6c79206f6e63652067656e73697353746172745072656044820152663234b1ba34b7b760c91b60648201526084016107d4565b60085461087f9060016120cc565b600881905561088d906119b6565b6002805460ff60a81b1916600160a81b179055565b600054600160a01b900460ff16156108cc5760405162461bcd60e51b81526004016107d490612066565b6004546001600160a01b031633146108f65760405162461bcd60e51b81526004016107d490612090565b600254600160a81b900460ff166109605760405162461bcd60e51b815260206004820152602860248201527f43616e206f6e6c792072756e2061667465722067656e7369735374617274507260448201526732b234b1ba34b7b760c11b60648201526084016107d4565b600254600160a01b900460ff16156109c55760405162461bcd60e51b815260206004820152602260248201527f43616e206f6e6c792072756e2067656e657369734c6f636b526f756e64206f6e604482015261636560f01b60648201526084016107d4565b6000806109d0611a11565b91509150816001600160501b03166009819055506109fa600854836001600160501b031683611a9d565b600854610a089060016120cc565b6008819055610a16906119b6565b50506002805460ff60a01b1916600160a01b179055565b6000546001600160a01b03163314610a875760405162461bcd60e51b815260206004820181905260248201527f4f776e61626c653a2063616c6c6572206973206e6f7420746865206f776e657260448201526064016107d4565b610a916000611b31565b565b600054600160a01b900460ff1615610abd5760405162461bcd60e51b81526004016107d490612066565b6004546001600160a01b03163314610ae75760405162461bcd60e51b81526004016107d490612090565b600254600160a81b900460ff168015610b095750600254600160a01b900460ff165b610b8a5760405162461bcd60e51b815260206004820152604660248201527f43616e206f6e6c792072756e2061667465722067656e6573697353746172745260448201527f6f756e6420616e642067656e657369734c6f636b526f756e642069732074726960648201526519d9d95c995960d21b608482015260a4016107d4565b600080610b95611a11565b91509150816001600160501b0316600981905550610bbf600854836001600160501b031683611a9d565b610be16001600854610bd191906120e4565b836001600160501b031683611b81565b610bf86001600854610bf391906120e4565b611c14565b600854610c069060016120cc565b6008819055610c1490611d93565b5050565b600054600160a01b900460ff1615610c425760405162461bcd60e51b81526004016107d490612066565b60026001541415610c655760405162461bcd60e51b81526004016107d4906120fb565b6002600155333b15610c895760405162461bcd60e51b81526004016107d490612132565b333214610ca85760405162461bcd60e51b81526004016107d490612160565b6008548114610cf15760405162461bcd60e51b81526020600482015260156024820152741e5bdd5c88195c1bd8da081a5cc81a5b9d985b1a59605a1b60448201526064016107d4565b610cfa81611e0f565b610d465760405162461bcd60e51b815260206004820152601a60248201527f796f75722065706f6368206973206e6f74206265747461626c6500000000000060448201526064016107d4565b600554341015610d985760405162461bcd60e51b815260206004820152601a60248201527f62657420616d6f756e74206d757374206265206772656174657200000000000060448201526064016107d4565b6000818152600a6020908152604080832033845290915290206001015415610dfa5760405162461bcd60e51b8152602060048201526015602482015274796f752063616e206f6e6c7920626574206f6e636560581b60448201526064016107d4565b6000818152600b602052604090206008810154349190610e1b9083906120cc565b6008820155600a810154610e309083906120cc565b600a808301919091556000848152602091825260408082203383529092522060018082018490558154829060ff191682805b0217905550336000818152600c6020908152604080832080546001810182559084529190922001869055518591907f0d8c1fe3e67ab767116a81f122b83c2557a8c2564019cb7c4f83de1aeb1f1f0d90610ebf9087815260200190565b60405180910390a35050600180555050565b6000828152600a602090815260408083206001600160a01b0385168452909152808220815160608101909252805483929190829060ff166001811115610f1957610f19611f60565b6001811115610f2a57610f2a611f60565b815260018281015460208084019190915260029384015460ff908116151560409485015260008a8152600b8084529085902085516101c081018752815481529481015493850193909352948201549383019390935260038101546060830152600481015460808301819052600582015460a08401819052600683015460c0850152600783015460e085015260088301546101008501526009830154610120850152600a83015461014085015294820154610160840152600c820154610180840152600d9091015490921615156101a0820152929350141561101057600092505050611097565b806101a0015180156110255750602082015115155b801561103357508160400151155b8015611092575080608001518160a00151138015611063575060008251600181111561106157611061611f60565b145b80611092575080608001518160a00151128015611092575060018251600181111561109057611090611f60565b145b925050505b92915050565b6000828152600a602090815260408083206001600160a01b0385168452909152808220815160608101909252805483929190829060ff1660018111156110e5576110e5611f60565b60018111156110f6576110f6611f60565b815260018281015460208084019190915260029384015460ff908116151560409485015260008a8152600b8084529085902085516101c08101875281548152948101549385019390935294820154938301939093526003810154606083015260048101546080830152600581015460a0830152600681015460c0830152600781015460e083015260088101546101008301526009810154610120830152600a81015461014083015292830154610160820152600c830154610180820152600d90920154161580156101a0830181905292935090916111d657508160400151155b80156110925750506020015115159392505050565b6002600154141561120e5760405162461bcd60e51b81526004016107d4906120fb565b6002600155333b156112325760405162461bcd60e51b81526004016107d490612132565b3332146112515760405162461bcd60e51b81526004016107d490612160565b6000805b8281101561164e57600b600085858481811061127357611273612197565b90506020020135815260200190815260200160002060010154600014156112d45760405162461bcd60e51b8152602060048201526015602482015274149bdd5b99081a185cc81b9bdd081cdd185c9d1959605a1b60448201526064016107d4565b6000600b60008686858181106112ec576112ec612197565b60209081029290920135835250810191909152604001600020600d015460ff16156114c05761133385858481811061132657611326612197565b9050602002013533610ed1565b6113785760405162461bcd60e51b81526020600482015260166024820152754e6f7420656c696769626c6520666f7220636c61696d60501b60448201526064016107d4565b6000600b600087878681811061139057611390612197565b60209081029290920135835250818101929092526040908101600090812082516101c081018452815481526001820154948101949094526002810154928401929092526003820154606084015260048201546080840152600582015460a0840152600682015460c0840152600782015460e084015260088201546101008401526009820154610120840152600a80830154610140850152600b8301546101608501819052600c8401546101808601819052600d9094015460ff1615156101a08601529394509089898881811061146857611468612197565b9050602002013581526020019081526020016000206000336001600160a01b03166001600160a01b03168152602001908152602001600020600101546114ae91906121ad565b6114b891906121cc565b915050611583565b6114e28585848181106114d5576114d5612197565b905060200201353361109d565b61152e5760405162461bcd60e51b815260206004820152601760248201527f4e6f7420656c696769626c6520666f7220726566756e6400000000000000000060448201526064016107d4565b600a600086868581811061154457611544612197565b9050602002013581526020019081526020016000206000336001600160a01b03166001600160a01b031681526020019081526020016000206001015490505b6001600a600087878681811061159b5761159b612197565b6020908102929092013583525081810192909252604090810160009081203382529092529020600201805460ff19169115159190911790556115dd81846120cc565b92508484838181106115f1576115f1612197565b90506020020135336001600160a01b03167f34fcbac0073d7c3d388e51312faf357774904998eeb8fca628b9e6f65ee1cbf78360405161163391815260200190565b60405180910390a35080611646816121ee565b915050611255565b50801561165f5761165f3382611e42565b50506001805550565b600054600160a01b900460ff16156116925760405162461bcd60e51b81526004016107d490612066565b600260015414156116b55760405162461bcd60e51b81526004016107d4906120fb565b6002600155333b156116d95760405162461bcd60e51b81526004016107d490612132565b3332146116f85760405162461bcd60e51b81526004016107d490612160565b60085481146117415760405162461bcd60e51b81526020600482015260156024820152741e5bdd5c88195c1bd8da081a5cc81a5b9d985b1a59605a1b60448201526064016107d4565b61174a81611e0f565b6117965760405162461bcd60e51b815260206004820152601a60248201527f796f75722065706f6368206973206e6f74206265747461626c6500000000000060448201526064016107d4565b6005543410156117e85760405162461bcd60e51b815260206004820152601a60248201527f62657420616d6f756e74206d757374206265206772656174657200000000000060448201526064016107d4565b6000818152600a602090815260408083203384529091529020600101541561184a5760405162461bcd60e51b8152602060048201526015602482015274796f752063616e206f6e6c7920626574206f6e636560581b60448201526064016107d4565b6000818152600b60205260409020600881015434919061186b9083906120cc565b600882015560098101546118809083906120cc565b60098201556000838152600a60209081526040808320338452909152812060018082018590558154919291839160ff199091169083610e62565b600c60205281600052604060002081815481106118d657600080fd5b90600052602060002001600091509150505481565b6000546001600160a01b031633146119455760405162461bcd60e51b815260206004820181905260248201527f4f776e61626c653a2063616c6c6572206973206e6f7420746865206f776e657260448201526064016107d4565b6001600160a01b0381166119aa5760405162461bcd60e51b815260206004820152602660248201527f4f776e61626c653a206e6577206f776e657220697320746865207a65726f206160448201526564647265737360d01b60648201526084016107d4565b6119b381611b31565b50565b6000818152600b60205260408082204260018201819055600282018190556003820155838155600881018390559051909183917f939f42374aa9bf1d8d8cd56d8a9110cb040cd8dfeae44080c6fcf2645e51b4529190a25050565b600080600080600260009054906101000a90046001600160a01b03166001600160a01b0316638e15f4736040518163ffffffff1660e01b815260040160a060405180830381865afa158015611a6a573d6000803e3d6000fd5b505050506040513d601f19601f82011682018060405250810190611a8e9190612220565b50929791965090945050505050565b6000838152600b6020526040902060010154611acb5760405162461bcd60e51b81526004016107d490612270565b6000838152600b6020908152604091829020426003808301919091556004820181905560068201869055925192835291849186917f482e76a65b448a42deef26e99e58fb20c85e26f075defff8df6aa80459b3900691015b60405180910390a350505050565b600080546001600160a01b038381166001600160a01b0319831681178455604051919092169283917f8be0079c531659141344cd1fd0a4f28419497f9722a3daafe3b4186f6b6457e09190a35050565b6000838152600b6020526040902060010154611baf5760405162461bcd60e51b81526004016107d490612270565b6000838152600b60205260409081902060026005820181905560078201859055600d8201805460ff1916600117905591519091849186917fb6ff1fe915db84788cbbbc017f0d2bef9485fad9fd0bd8ce9340fde0d8410dd891611b2391815260200190565b6000818152600b602081905260409091200154158015611c4357506000818152600b60205260409020600c0154155b611c845760405162461bcd60e51b815260206004820152601260248201527114995dd85c991cc818d85b18dd5b185d195960721b60448201526064016107d4565b6000818152600b6020526040812060048101546005820154919291829182911315611ce857836009015492506127106006548560080154611cc591906121ad565b611ccf91906121cc565b9150818460080154611ce191906120e4565b9050611d21565b836004015484600501541215611d145783600a015492506127106006548560080154611cc591906121ad565b5050506008810154600090815b600b8401839055600c840181905560078054839190600090611d449084906120cc565b9091555050604080518481526020810183905290810183905285907f6dfdfcb09c8804d0058826cd2539f1acfbe3cb887c9be03d928035bce0f1a58d9060600160405180910390a25050505050565b600254600160a81b900460ff16611e065760405162461bcd60e51b815260206004820152603160248201527f43616e206f6e6c792072756e2061667465722067656e657369735374617274526044820152701bdd5b99081a5cc81d1c9a59d9d95c9959607a1b60648201526084016107d4565b6119b3816119b6565b6000818152600b6020526040812060010154158015906110975750506000908152600b6020526040902060020154151590565b6000826001600160a01b03168260405160006040518083038185875af1925050503d8060008114611e8f576040519150601f19603f3d011682016040523d82523d6000602084013e611e94565b606091505b5050905080611ef15760405162461bcd60e51b815260206004820152602360248201527f5472616e7366657248656c7065723a20424e425f5452414e534645525f46414960448201526213115160ea1b60648201526084016107d4565b505050565b80356001600160a01b0381168114611f0d57600080fd5b919050565b600060208284031215611f2457600080fd5b611f2d82611ef6565b9392505050565b60008060408385031215611f4757600080fd5b82359150611f5760208401611ef6565b90509250929050565b634e487b7160e01b600052602160045260246000fd5b6060810160028510611f9857634e487b7160e01b600052602160045260246000fd5b9381526020810192909252151560409091015290565b600060208284031215611fc057600080fd5b5035919050565b60008060208385031215611fda57600080fd5b823567ffffffffffffffff80821115611ff257600080fd5b818501915085601f83011261200657600080fd5b81358181111561201557600080fd5b8660208260051b850101111561202a57600080fd5b60209290920196919550909350505050565b6000806040838503121561204f57600080fd5b61205883611ef6565b946020939093013593505050565b60208082526010908201526f14185d5cd8589b194e881c185d5cd95960821b604082015260600190565b6020808252600c908201526b2737ba1037b832b930ba37b960a11b604082015260600190565b634e487b7160e01b600052601160045260246000fd5b600082198211156120df576120df6120b6565b500190565b6000828210156120f6576120f66120b6565b500390565b6020808252601f908201527f5265656e7472616e637947756172643a207265656e7472616e742063616c6c00604082015260600190565b60208082526014908201527310dbdb9d1c9858dd081b9bdd08185b1b1bddd95960621b604082015260600190565b6020808252601a908201527f50726f787920636f6e7472616374206e6f7420616c6c6f776564000000000000604082015260600190565b634e487b7160e01b600052603260045260246000fd5b60008160001904831182151516156121c7576121c76120b6565b500290565b6000826121e957634e487b7160e01b600052601260045260246000fd5b500490565b6000600019821415612202576122026120b6565b5060010190565b80516001600160501b0381168114611f0d57600080fd5b600080600080600060a0868803121561223857600080fd5b61224186612209565b945060208601519350604086015192506060860151915061226460808701612209565b90509295509295909350565b6020808252602b908201527f43616e206f6e6c79206c6f636b20726f756e6420616674657220726f756e642060408201526a1a185cc81cdd185c9d195960aa1b60608201526080019056fea264697066735822122060b168ae8f48ae08fc75511712d15e55e7987622572f42463b315d7d4c7e2cf264736f6c634300080a0033",
  "immutableReferences": {},
  "source": "// SPDX-License-Identifier: MIT\r\npragma solidity >=0.4.22 <0.9.0;\r\n\r\nimport \"@openzeppelin/contracts/access/Ownable.sol\";\r\nimport \"@openzeppelin/contracts/security/Pausable.sol\";\r\nimport \"@openzeppelin/contracts/security/ReentrancyGuard.sol\";\r\nimport \"@openzeppelin/contracts/token/ERC20/utils/SafeERC20.sol\";\r\n\r\n\r\ninterface AggregatorV3Interface {\r\n\r\n  function decimals() external view returns ( uint8 );\r\n\r\n  function description() external view returns ( string memory );\r\n\r\n  function version() external view returns ( uint256 );\r\n  \r\n  function getLatestPrice() external view returns (\r\n            uint80 roundID, \r\n            int price,\r\n            uint startedAt,\r\n            uint timeStamp,\r\n            uint80 answeredInRound\r\n      );\r\n\r\n}\r\n\r\n\r\ncontract pricePrediction is Ownable, Pausable, ReentrancyGuard {\r\n    using SafeERC20 for IERC20;\r\n\r\n    AggregatorV3Interface public oracle;\r\n\r\n    bool public genesisLockOnce = false;\r\n    bool public genesisStartOnce = false;\r\n\r\n    address public adminAddress; \r\n    address public operatorAddress; \r\n\r\n    uint256 public minBetAmount;\r\n    uint256 public treasuryFee;\r\n    uint256 public treasuryAmount;\r\n\r\n    uint256 public currentEpoch;\r\n    uint256 public oracleLatestRoundId;\r\n\r\n    uint256 public constant MAX_TREASURY_FEE = 1000;\r\n\r\n    mapping(uint256 => mapping(address => BetInfo)) public ledger;\r\n    mapping(uint256 => Round) public rounds;\r\n    mapping(address => uint256[]) public userRounds;\r\n\r\n    enum Position {\r\n        Bull,\r\n        Bear\r\n    }\r\n\r\n    struct Round {\r\n        uint256 epoch;\r\n        uint256 startTimestamp;\r\n        uint256 lockTimestamp;\r\n        uint256 closeTimestamp;\r\n        int256 lockPrice;\r\n        int256 closePrice;\r\n        uint256 lockOracleId;\r\n        uint256 closeOracleId;\r\n        uint256 totalAmount;\r\n        uint256 bullAmount;\r\n        uint256 bearAmount;\r\n        uint256 rewardBaseCalAmount;\r\n        uint256 rewardAmount;\r\n        bool oracleCalled;\r\n    }\r\n\r\n    struct BetInfo {\r\n        Position position;\r\n        uint256 amount;\r\n        bool claimed; // default false\r\n    }\r\n\r\n    event BetBear(address indexed sender, uint256 indexed epoch, uint256 amount);\r\n    event BetBull(address indexed sender, uint256 indexed epoch, uint256 amount);\r\n    event Claim(address indexed sender, uint256 indexed epoch, uint256 amount);\r\n    event EndRound(uint256 indexed epoch, uint256 indexed roundId, int256 price);\r\n    event LockRound(uint256 indexed epoch, uint256 indexed roundId, int256 price);\r\n\r\n    event NewAdminAddress(address admin);\r\n    event NewBufferAndIntervalSeconds(uint256 bufferSeconds, uint256 intervalSeconds);\r\n    event NewMinBetAmount(uint256 indexed epoch, uint256 minBetAmount);\r\n    event NewTreasuryFee(uint256 indexed epoch, uint256 treasuryFee);\r\n    event NewOperatorAddress(address operator);\r\n    event NewOracle(address oracle);\r\n    event NewOracleUpdateAllowance(uint256 oracleUpdateAllowance);\r\n\r\n    event Pause(uint256 indexed epoch);\r\n    event RewardsCalculated(\r\n        uint256 indexed epoch,\r\n        uint256 rewardBaseCalAmount,\r\n        uint256 rewardAmount,\r\n        uint256 treasuryAmount\r\n    );\r\n\r\n    event StartRound(uint256 indexed epoch);\r\n    event TokenRecovery(address indexed token, uint256 amount);\r\n    event TreasuryClaim(uint256 amount);\r\n    event Unpause(uint256 indexed epoch);\r\n\r\n    modifier onlyAdmin() {\r\n        require(msg.sender == adminAddress, \"Not admin\");\r\n        _;\r\n    }\r\n\r\n    modifier onlyAdminOrOperator() {\r\n        require(msg.sender == adminAddress || msg.sender == operatorAddress, \"Not operator/admin\");\r\n        _;\r\n    }\r\n\r\n    modifier onlyOperator() {\r\n        require(msg.sender == operatorAddress, \"Not operator\");\r\n        _;\r\n    }\r\n\r\n    modifier notContract() {\r\n        require(!_isContract(msg.sender), \"Contract not allowed\");\r\n        require(msg.sender == tx.origin, \"Proxy contract not allowed\");\r\n        _;\r\n    }\r\n\r\n    constructor(\r\n        address _oracleAddress,\r\n        address _adminAddress,\r\n        address _operatorAddress,\r\n        uint256 _minBetAmount,\r\n        uint256 _treasuryFee\r\n    ) {\r\n        require(_treasuryFee <= MAX_TREASURY_FEE, \"Treasury fee too high\");\r\n\r\n        oracle = AggregatorV3Interface(_oracleAddress);\r\n        adminAddress = _adminAddress;\r\n        operatorAddress = _operatorAddress;\r\n        minBetAmount = _minBetAmount;\r\n        treasuryFee = _treasuryFee;\r\n    }\r\n\r\n    function gensisStartPrediction() external whenNotPaused onlyOperator {\r\n        require(!genesisStartOnce, 'You can only once gensisStartPrediction');\r\n\r\n        currentEpoch = currentEpoch + 1;\r\n        _startNewRound(currentEpoch);\r\n        genesisStartOnce = true;\r\n    }\r\n\r\n    function _startNewRound(uint256 _epoch) internal {\r\n        Round storage round = rounds[_epoch];\r\n        round.startTimestamp = block.timestamp;\r\n        round.lockTimestamp = block.timestamp;\r\n        round.closeTimestamp = block.timestamp;\r\n        round.epoch = _epoch;\r\n        round.totalAmount = 0;\r\n\r\n        emit StartRound(_epoch);\r\n    }\r\n\r\n    function _safeStartRound(uint256 _epoch) internal {\r\n        require(genesisStartOnce, \"Can only run after genesisStartRound is triggered\");\r\n        _startNewRound(_epoch);\r\n    }\r\n\r\n    function betBearPrediction(uint256 _epoch) external payable whenNotPaused nonReentrant notContract {\r\n        require(_epoch == currentEpoch , 'your epoch is invalid');\r\n        require(epochIsBettable(_epoch), 'your epoch is not bettable');\r\n        require(msg.value >= minBetAmount, 'bet amount must be greater');\r\n        require(ledger[_epoch][msg.sender].amount == 0, 'you can only bet once');\r\n\r\n        uint amount = msg.value;\r\n        Round storage round = rounds[_epoch];\r\n        round.totalAmount = round.totalAmount + amount;\r\n        round.bearAmount = round.bearAmount + amount;\r\n\r\n        BetInfo storage betInfo = ledger[_epoch][msg.sender];\r\n        betInfo.amount = amount;\r\n        betInfo.position = Position.Bear;\r\n        userRounds[msg.sender].push(_epoch);\r\n        \r\n        emit BetBear(msg.sender, _epoch, amount);\r\n    }\r\n\r\n    function betBullPrediction(uint256 _epoch) external payable whenNotPaused nonReentrant notContract {\r\n        require(_epoch == currentEpoch , 'your epoch is invalid');\r\n        require(epochIsBettable(_epoch), 'your epoch is not bettable');\r\n        require(msg.value >= minBetAmount, 'bet amount must be greater');\r\n        require(ledger[_epoch][msg.sender].amount == 0, 'you can only bet once');\r\n\r\n        uint amount = msg.value;\r\n        Round storage round = rounds[_epoch];\r\n        round.totalAmount = round.totalAmount + amount;\r\n        round.bullAmount = round.bullAmount + amount;\r\n\r\n        BetInfo storage betInfo = ledger[_epoch][msg.sender];\r\n        betInfo.amount = amount;\r\n        betInfo.position = Position.Bull;\r\n        userRounds[msg.sender].push(_epoch);\r\n        \r\n        emit BetBear(msg.sender, _epoch, amount);\r\n    }\r\n\r\n    function epochIsBettable(uint256 _epoch) internal view returns (bool){\r\n        return\r\n        rounds[_epoch].startTimestamp != 0 \r\n        &&\r\n        rounds[_epoch].lockTimestamp != 0 ;\r\n    }\r\n    \r\n    function gensisLockRound() external whenNotPaused onlyOperator {\r\n        require(genesisStartOnce, 'Can only run after gensisStartPrediction');\r\n        require(!genesisLockOnce, \"Can only run genesisLockRound once\");\r\n\r\n        (uint80 currentRoundId, int256 currentPrice) = _getPriceFromOracle();\r\n\r\n        oracleLatestRoundId = uint256(currentRoundId);\r\n\r\n        _safeLockRound(currentEpoch, currentRoundId, currentPrice);\r\n\r\n        currentEpoch = currentEpoch + 1;\r\n        _startNewRound(currentEpoch);\r\n        genesisLockOnce = true;\r\n    }\r\n\r\n    function executeRound() external whenNotPaused onlyOperator {\r\n\r\n        require(\r\n            genesisStartOnce && genesisLockOnce,\r\n            \"Can only run after genesisStartRound and genesisLockRound is triggered\"\r\n        );\r\n\r\n        (uint80 currentRoundId, int256 currentPrice) = _getPriceFromOracle();\r\n\r\n        oracleLatestRoundId = uint256(currentRoundId);\r\n\r\n        _safeLockRound(currentEpoch, currentRoundId, currentPrice);\r\n        _safeEndRound(currentEpoch - 1, currentRoundId, currentPrice);\r\n        _calculateRewards(currentEpoch - 1);\r\n\r\n        currentEpoch = currentEpoch + 1;\r\n        _safeStartRound(currentEpoch);\r\n\r\n    }\r\n\r\n    function _safeLockRound(uint256 _epoch, uint256 _roundId, int256 _currentPrice) internal {\r\n        require(rounds[_epoch].startTimestamp !=0 , 'Can only lock round after round has started');\r\n        Round storage round = rounds[_epoch];\r\n        round.closeTimestamp = block.timestamp;\r\n        round.lockPrice = 3;\r\n        round.lockOracleId = _roundId;\r\n\r\n        emit LockRound(_epoch, _roundId, round.lockPrice);\r\n    }\r\n\r\n    function _safeEndRound(uint256 _epoch, uint256 _roundId, int256 _currentPrice) internal {\r\n        require(rounds[_epoch].startTimestamp !=0 , 'Can only lock round after round has started');\r\n        \r\n        Round storage round = rounds[_epoch];\r\n        round.closePrice = 2;\r\n        round.closeOracleId = _roundId;\r\n        round.oracleCalled = true;\r\n\r\n        emit EndRound(_epoch, _roundId, round.closePrice);\r\n    }\r\n\r\n    function _calculateRewards(uint256 _epoch) internal {\r\n        require(rounds[_epoch].rewardBaseCalAmount == 0 && rounds[_epoch].rewardAmount == 0, \"Rewards calculated\");\r\n        Round storage round = rounds[_epoch];\r\n        uint256 rewardBaseCalAmount;\r\n        uint256 treasuryAmt;\r\n        uint256 rewardAmount;\r\n\r\n        if (round.closePrice > round.lockPrice) {\r\n            rewardBaseCalAmount = round.bullAmount;\r\n            treasuryAmt = (round.totalAmount * treasuryFee) / 10000;\r\n            rewardAmount = round.totalAmount - treasuryAmt;\r\n        }\r\n        else if (round.closePrice < round.lockPrice) {\r\n            rewardBaseCalAmount = round.bearAmount;\r\n            treasuryAmt = (round.totalAmount * treasuryFee) / 10000;\r\n            rewardAmount = round.totalAmount - treasuryAmt;\r\n        }\r\n        else {\r\n            rewardBaseCalAmount = 0;\r\n            rewardAmount = 0;\r\n            treasuryAmt = round.totalAmount;\r\n        }\r\n        round.rewardBaseCalAmount = rewardBaseCalAmount;\r\n        round.rewardAmount = rewardAmount;\r\n\r\n        treasuryAmount += treasuryAmt;\r\n\r\n        emit RewardsCalculated(_epoch, rewardBaseCalAmount, rewardAmount, treasuryAmt);\r\n    }\r\n\r\n    function getSomeAnswer(uint _epoch) external view returns(uint256) {\r\n        Round memory round = rounds[_epoch];\r\n        return round.rewardAmount;\r\n    }\r\n\r\n    function claimReward(uint256[] calldata _epochs) external nonReentrant notContract {\r\n        uint256 reward;\r\n\r\n        for (uint256 i = 0; i < _epochs.length; i++) {\r\n            require(rounds[_epochs[i]].startTimestamp != 0, \"Round has not started\");\r\n\r\n            uint256 addedReward = 0;\r\n\r\n            if (rounds[_epochs[i]].oracleCalled) {\r\n                require(isClaimable(_epochs[i], msg.sender), \"Not eligible for claim\");\r\n                Round memory round = rounds[_epochs[i]];\r\n                addedReward = (ledger[_epochs[i]][msg.sender].amount * round.rewardAmount) / round.rewardBaseCalAmount;\r\n            }\r\n            else {\r\n                require(isRefundable(_epochs[i], msg.sender), \"Not eligible for refund\");\r\n                addedReward = ledger[_epochs[i]][msg.sender].amount;\r\n            }\r\n\r\n            ledger[_epochs[i]][msg.sender].claimed = true;\r\n            reward += addedReward;\r\n\r\n            emit Claim(msg.sender, _epochs[i], addedReward);\r\n        }\r\n\r\n        if (reward > 0) {\r\n            _safeTransferBNB(address(msg.sender), reward);\r\n        }\r\n    }\r\n\r\n    function _safeTransferBNB(address to, uint256 value) internal {\r\n        (bool success, ) = to.call{value: value}(\"\");\r\n        require(success, \"TransferHelper: BNB_TRANSFER_FAILED\");\r\n    }\r\n\r\n\r\n    function getOracleCalled(uint256 _epoch) external view returns(bool){\r\n                Round memory round = rounds[_epoch];\r\n                return round.oracleCalled;\r\n    }\r\n\r\n\r\n    function isClaimable(uint256 _epoch, address _user) public view returns(bool){\r\n        BetInfo memory betInfo = ledger[_epoch][_user];\r\n        Round memory round = rounds[_epoch];\r\n        if (round.lockPrice == round.closePrice) {\r\n            return false;\r\n        }\r\n        return\r\n            round.oracleCalled &&\r\n            betInfo.amount != 0 &&\r\n            !betInfo.claimed &&\r\n            ((round.closePrice > round.lockPrice && betInfo.position == Position.Bull) ||\r\n                (round.closePrice < round.lockPrice && betInfo.position == Position.Bear));\r\n    }\r\n\r\n    function isRefundable(uint256 _epoch, address _user) public view returns (bool) {\r\n        BetInfo memory betInfo = ledger[_epoch][_user];\r\n        Round memory round = rounds[_epoch];\r\n        return\r\n            !round.oracleCalled &&\r\n            !betInfo.claimed &&\r\n            betInfo.amount != 0;\r\n    }\r\n\r\n    function _getPriceFromOracle() internal view returns (uint80, int256){\r\n        (uint80 roundId, int256 price, , , ) = oracle.getLatestPrice();\r\n        return (roundId, price);\r\n    }\r\n\r\n    function getUserRoundsLength(address user) external view returns (uint256) {\r\n        return userRounds[user].length;\r\n    }\r\n\r\n    function _isContract(address account) internal view returns (bool) {\r\n        uint256 size;\r\n        assembly {\r\n            size := extcodesize(account)\r\n        }\r\n        return size > 0;\r\n    }\r\n\r\n}",
  "sourcePath": "C:\\Users\\JS\\Desktop\\pricePrediction\\contracts\\pricePrediction.sol",
  "compiler": {
    "name": "solc",
    "version": "0.8.10+commit.fc410830.Emscripten.clang"
  },
  "schemaVersion": "3.4.4",
  "updatedAt": "2022-03-02T09:51:31.106Z",
  "networkType": "ethereum",
  "devdoc": {
    "kind": "dev",
    "methods": {
      "owner()": {
        "details": "Returns the address of the current owner."
      },
      "paused()": {
        "details": "Returns true if the contract is paused, and false otherwise."
      },
      "renounceOwnership()": {
        "details": "Leaves the contract without owner. It will not be possible to call `onlyOwner` functions anymore. Can only be called by the current owner. NOTE: Renouncing ownership will leave the contract without an owner, thereby removing any functionality that is only available to the owner."
      },
      "transferOwnership(address)": {
        "details": "Transfers ownership of the contract to a new account (`newOwner`). Can only be called by the current owner."
      }
    },
    "version": 1
  },
  "userdoc": {
    "kind": "user",
    "methods": {},
    "version": 1
  }
}