{
  "contractName": "pricePrediction",
  "abi": [
    {
      "inputs": [
        {
          "internalType": "address",
          "name": "_oracleAddress",
          "type": "address"
        },
        {
          "internalType": "address",
          "name": "_adminAddress",
          "type": "address"
        },
        {
          "internalType": "address",
          "name": "_operatorAddress",
          "type": "address"
        },
        {
          "internalType": "uint256",
          "name": "_intervalSeconds",
          "type": "uint256"
        },
        {
          "internalType": "uint256",
          "name": "_bufferSeconds",
          "type": "uint256"
        },
        {
          "internalType": "uint256",
          "name": "_minBetAmount",
          "type": "uint256"
        },
        {
          "internalType": "uint256",
          "name": "_oracleUpdateAllowance",
          "type": "uint256"
        },
        {
          "internalType": "uint256",
          "name": "_treasuryFee",
          "type": "uint256"
        }
      ],
      "stateMutability": "nonpayable",
      "type": "constructor"
    },
    {
      "anonymous": false,
      "inputs": [
        {
          "indexed": true,
          "internalType": "address",
          "name": "sender",
          "type": "address"
        },
        {
          "indexed": true,
          "internalType": "uint256",
          "name": "epoch",
          "type": "uint256"
        },
        {
          "indexed": false,
          "internalType": "uint256",
          "name": "amount",
          "type": "uint256"
        }
      ],
      "name": "BetBear",
      "type": "event"
    },
    {
      "anonymous": false,
      "inputs": [
        {
          "indexed": true,
          "internalType": "address",
          "name": "sender",
          "type": "address"
        },
        {
          "indexed": true,
          "internalType": "uint256",
          "name": "epoch",
          "type": "uint256"
        },
        {
          "indexed": false,
          "internalType": "uint256",
          "name": "amount",
          "type": "uint256"
        }
      ],
      "name": "BetBull",
      "type": "event"
    },
    {
      "anonymous": false,
      "inputs": [
        {
          "indexed": true,
          "internalType": "address",
          "name": "sender",
          "type": "address"
        },
        {
          "indexed": true,
          "internalType": "uint256",
          "name": "epoch",
          "type": "uint256"
        },
        {
          "indexed": false,
          "internalType": "uint256",
          "name": "amount",
          "type": "uint256"
        }
      ],
      "name": "Claim",
      "type": "event"
    },
    {
      "anonymous": false,
      "inputs": [
        {
          "indexed": true,
          "internalType": "uint256",
          "name": "epoch",
          "type": "uint256"
        },
        {
          "indexed": true,
          "internalType": "uint256",
          "name": "roundId",
          "type": "uint256"
        },
        {
          "indexed": false,
          "internalType": "int256",
          "name": "price",
          "type": "int256"
        }
      ],
      "name": "EndRound",
      "type": "event"
    },
    {
      "anonymous": false,
      "inputs": [
        {
          "indexed": true,
          "internalType": "uint256",
          "name": "epoch",
          "type": "uint256"
        },
        {
          "indexed": true,
          "internalType": "uint256",
          "name": "roundId",
          "type": "uint256"
        },
        {
          "indexed": false,
          "internalType": "int256",
          "name": "price",
          "type": "int256"
        }
      ],
      "name": "LockRound",
      "type": "event"
    },
    {
      "anonymous": false,
      "inputs": [
        {
          "indexed": false,
          "internalType": "address",
          "name": "admin",
          "type": "address"
        }
      ],
      "name": "NewAdminAddress",
      "type": "event"
    },
    {
      "anonymous": false,
      "inputs": [
        {
          "indexed": false,
          "internalType": "uint256",
          "name": "bufferSeconds",
          "type": "uint256"
        },
        {
          "indexed": false,
          "internalType": "uint256",
          "name": "intervalSeconds",
          "type": "uint256"
        }
      ],
      "name": "NewBufferAndIntervalSeconds",
      "type": "event"
    },
    {
      "anonymous": false,
      "inputs": [
        {
          "indexed": true,
          "internalType": "uint256",
          "name": "epoch",
          "type": "uint256"
        },
        {
          "indexed": false,
          "internalType": "uint256",
          "name": "minBetAmount",
          "type": "uint256"
        }
      ],
      "name": "NewMinBetAmount",
      "type": "event"
    },
    {
      "anonymous": false,
      "inputs": [
        {
          "indexed": false,
          "internalType": "address",
          "name": "operator",
          "type": "address"
        }
      ],
      "name": "NewOperatorAddress",
      "type": "event"
    },
    {
      "anonymous": false,
      "inputs": [
        {
          "indexed": false,
          "internalType": "address",
          "name": "oracle",
          "type": "address"
        }
      ],
      "name": "NewOracle",
      "type": "event"
    },
    {
      "anonymous": false,
      "inputs": [
        {
          "indexed": false,
          "internalType": "uint256",
          "name": "oracleUpdateAllowance",
          "type": "uint256"
        }
      ],
      "name": "NewOracleUpdateAllowance",
      "type": "event"
    },
    {
      "anonymous": false,
      "inputs": [
        {
          "indexed": true,
          "internalType": "uint256",
          "name": "epoch",
          "type": "uint256"
        },
        {
          "indexed": false,
          "internalType": "uint256",
          "name": "treasuryFee",
          "type": "uint256"
        }
      ],
      "name": "NewTreasuryFee",
      "type": "event"
    },
    {
      "anonymous": false,
      "inputs": [
        {
          "indexed": true,
          "internalType": "address",
          "name": "previousOwner",
          "type": "address"
        },
        {
          "indexed": true,
          "internalType": "address",
          "name": "newOwner",
          "type": "address"
        }
      ],
      "name": "OwnershipTransferred",
      "type": "event"
    },
    {
      "anonymous": false,
      "inputs": [
        {
          "indexed": true,
          "internalType": "uint256",
          "name": "epoch",
          "type": "uint256"
        }
      ],
      "name": "Pause",
      "type": "event"
    },
    {
      "anonymous": false,
      "inputs": [
        {
          "indexed": false,
          "internalType": "address",
          "name": "account",
          "type": "address"
        }
      ],
      "name": "Paused",
      "type": "event"
    },
    {
      "anonymous": false,
      "inputs": [
        {
          "indexed": true,
          "internalType": "uint256",
          "name": "epoch",
          "type": "uint256"
        },
        {
          "indexed": false,
          "internalType": "uint256",
          "name": "rewardBaseCalAmount",
          "type": "uint256"
        },
        {
          "indexed": false,
          "internalType": "uint256",
          "name": "rewardAmount",
          "type": "uint256"
        },
        {
          "indexed": false,
          "internalType": "uint256",
          "name": "treasuryAmount",
          "type": "uint256"
        }
      ],
      "name": "RewardsCalculated",
      "type": "event"
    },
    {
      "anonymous": false,
      "inputs": [
        {
          "indexed": true,
          "internalType": "uint256",
          "name": "epoch",
          "type": "uint256"
        }
      ],
      "name": "StartRound",
      "type": "event"
    },
    {
      "anonymous": false,
      "inputs": [
        {
          "indexed": true,
          "internalType": "address",
          "name": "token",
          "type": "address"
        },
        {
          "indexed": false,
          "internalType": "uint256",
          "name": "amount",
          "type": "uint256"
        }
      ],
      "name": "TokenRecovery",
      "type": "event"
    },
    {
      "anonymous": false,
      "inputs": [
        {
          "indexed": false,
          "internalType": "uint256",
          "name": "amount",
          "type": "uint256"
        }
      ],
      "name": "TreasuryClaim",
      "type": "event"
    },
    {
      "anonymous": false,
      "inputs": [
        {
          "indexed": true,
          "internalType": "uint256",
          "name": "epoch",
          "type": "uint256"
        }
      ],
      "name": "Unpause",
      "type": "event"
    },
    {
      "anonymous": false,
      "inputs": [
        {
          "indexed": false,
          "internalType": "address",
          "name": "account",
          "type": "address"
        }
      ],
      "name": "Unpaused",
      "type": "event"
    },
    {
      "inputs": [],
      "name": "MAX_TREASURY_FEE",
      "outputs": [
        {
          "internalType": "uint256",
          "name": "",
          "type": "uint256"
        }
      ],
      "stateMutability": "view",
      "type": "function",
      "constant": true
    },
    {
      "inputs": [],
      "name": "adminAddress",
      "outputs": [
        {
          "internalType": "address",
          "name": "",
          "type": "address"
        }
      ],
      "stateMutability": "view",
      "type": "function",
      "constant": true
    },
    {
      "inputs": [],
      "name": "bufferSeconds",
      "outputs": [
        {
          "internalType": "uint256",
          "name": "",
          "type": "uint256"
        }
      ],
      "stateMutability": "view",
      "type": "function",
      "constant": true
    },
    {
      "inputs": [],
      "name": "currentEpoch",
      "outputs": [
        {
          "internalType": "uint256",
          "name": "",
          "type": "uint256"
        }
      ],
      "stateMutability": "view",
      "type": "function",
      "constant": true
    },
    {
      "inputs": [],
      "name": "genesisLockOnce",
      "outputs": [
        {
          "internalType": "bool",
          "name": "",
          "type": "bool"
        }
      ],
      "stateMutability": "view",
      "type": "function",
      "constant": true
    },
    {
      "inputs": [],
      "name": "genesisStartOnce",
      "outputs": [
        {
          "internalType": "bool",
          "name": "",
          "type": "bool"
        }
      ],
      "stateMutability": "view",
      "type": "function",
      "constant": true
    },
    {
      "inputs": [],
      "name": "intervalSeconds",
      "outputs": [
        {
          "internalType": "uint256",
          "name": "",
          "type": "uint256"
        }
      ],
      "stateMutability": "view",
      "type": "function",
      "constant": true
    },
    {
      "inputs": [
        {
          "internalType": "uint256",
          "name": "",
          "type": "uint256"
        },
        {
          "internalType": "address",
          "name": "",
          "type": "address"
        }
      ],
      "name": "ledger",
      "outputs": [
        {
          "internalType": "enum pricePrediction.Position",
          "name": "position",
          "type": "uint8"
        },
        {
          "internalType": "uint256",
          "name": "amount",
          "type": "uint256"
        },
        {
          "internalType": "bool",
          "name": "claimed",
          "type": "bool"
        }
      ],
      "stateMutability": "view",
      "type": "function",
      "constant": true
    },
    {
      "inputs": [],
      "name": "minBetAmount",
      "outputs": [
        {
          "internalType": "uint256",
          "name": "",
          "type": "uint256"
        }
      ],
      "stateMutability": "view",
      "type": "function",
      "constant": true
    },
    {
      "inputs": [],
      "name": "operatorAddress",
      "outputs": [
        {
          "internalType": "address",
          "name": "",
          "type": "address"
        }
      ],
      "stateMutability": "view",
      "type": "function",
      "constant": true
    },
    {
      "inputs": [],
      "name": "oracle",
      "outputs": [
        {
          "internalType": "contract AggregatorV3Interface",
          "name": "",
          "type": "address"
        }
      ],
      "stateMutability": "view",
      "type": "function",
      "constant": true
    },
    {
      "inputs": [],
      "name": "oracleLatestRoundId",
      "outputs": [
        {
          "internalType": "uint256",
          "name": "",
          "type": "uint256"
        }
      ],
      "stateMutability": "view",
      "type": "function",
      "constant": true
    },
    {
      "inputs": [],
      "name": "oracleUpdateAllowance",
      "outputs": [
        {
          "internalType": "uint256",
          "name": "",
          "type": "uint256"
        }
      ],
      "stateMutability": "view",
      "type": "function",
      "constant": true
    },
    {
      "inputs": [],
      "name": "owner",
      "outputs": [
        {
          "internalType": "address",
          "name": "",
          "type": "address"
        }
      ],
      "stateMutability": "view",
      "type": "function",
      "constant": true
    },
    {
      "inputs": [],
      "name": "paused",
      "outputs": [
        {
          "internalType": "bool",
          "name": "",
          "type": "bool"
        }
      ],
      "stateMutability": "view",
      "type": "function",
      "constant": true
    },
    {
      "inputs": [],
      "name": "renounceOwnership",
      "outputs": [],
      "stateMutability": "nonpayable",
      "type": "function"
    },
    {
      "inputs": [
        {
          "internalType": "uint256",
          "name": "",
          "type": "uint256"
        }
      ],
      "name": "rounds",
      "outputs": [
        {
          "internalType": "uint256",
          "name": "epoch",
          "type": "uint256"
        },
        {
          "internalType": "uint256",
          "name": "startTimestamp",
          "type": "uint256"
        },
        {
          "internalType": "uint256",
          "name": "lockTimestamp",
          "type": "uint256"
        },
        {
          "internalType": "uint256",
          "name": "closeTimestamp",
          "type": "uint256"
        },
        {
          "internalType": "int256",
          "name": "lockPrice",
          "type": "int256"
        },
        {
          "internalType": "int256",
          "name": "closePrice",
          "type": "int256"
        },
        {
          "internalType": "uint256",
          "name": "lockOracleId",
          "type": "uint256"
        },
        {
          "internalType": "uint256",
          "name": "closeOracleId",
          "type": "uint256"
        },
        {
          "internalType": "uint256",
          "name": "totalAmount",
          "type": "uint256"
        },
        {
          "internalType": "uint256",
          "name": "bullAmount",
          "type": "uint256"
        },
        {
          "internalType": "uint256",
          "name": "bearAmount",
          "type": "uint256"
        },
        {
          "internalType": "uint256",
          "name": "rewardBaseCalAmount",
          "type": "uint256"
        },
        {
          "internalType": "uint256",
          "name": "rewardAmount",
          "type": "uint256"
        },
        {
          "internalType": "bool",
          "name": "oracleCalled",
          "type": "bool"
        }
      ],
      "stateMutability": "view",
      "type": "function",
      "constant": true
    },
    {
      "inputs": [
        {
          "internalType": "address",
          "name": "newOwner",
          "type": "address"
        }
      ],
      "name": "transferOwnership",
      "outputs": [],
      "stateMutability": "nonpayable",
      "type": "function"
    },
    {
      "inputs": [],
      "name": "treasuryAmount",
      "outputs": [
        {
          "internalType": "uint256",
          "name": "",
          "type": "uint256"
        }
      ],
      "stateMutability": "view",
      "type": "function",
      "constant": true
    },
    {
      "inputs": [],
      "name": "treasuryFee",
      "outputs": [
        {
          "internalType": "uint256",
          "name": "",
          "type": "uint256"
        }
      ],
      "stateMutability": "view",
      "type": "function",
      "constant": true
    },
    {
      "inputs": [
        {
          "internalType": "address",
          "name": "",
          "type": "address"
        },
        {
          "internalType": "uint256",
          "name": "",
          "type": "uint256"
        }
      ],
      "name": "userRounds",
      "outputs": [
        {
          "internalType": "uint256",
          "name": "",
          "type": "uint256"
        }
      ],
      "stateMutability": "view",
      "type": "function",
      "constant": true
    },
    {
      "inputs": [
        {
          "internalType": "uint256",
          "name": "_epoch",
          "type": "uint256"
        },
        {
          "internalType": "int256",
          "name": "_newPrice",
          "type": "int256"
        }
      ],
      "name": "changeLockPrice",
      "outputs": [],
      "stateMutability": "nonpayable",
      "type": "function"
    },
    {
      "inputs": [
        {
          "internalType": "uint256",
          "name": "_epoch",
          "type": "uint256"
        }
      ],
      "name": "getLockPrice",
      "outputs": [
        {
          "internalType": "int256",
          "name": "",
          "type": "int256"
        }
      ],
      "stateMutability": "view",
      "type": "function",
      "constant": true
    },
    {
      "inputs": [],
      "name": "gensisStartPrediction",
      "outputs": [],
      "stateMutability": "nonpayable",
      "type": "function"
    },
    {
      "inputs": [
        {
          "internalType": "uint256",
          "name": "_epoch",
          "type": "uint256"
        }
      ],
      "name": "betBearPrediction",
      "outputs": [],
      "stateMutability": "payable",
      "type": "function",
      "payable": true
    },
    {
      "inputs": [
        {
          "internalType": "uint256",
          "name": "_epoch",
          "type": "uint256"
        }
      ],
      "name": "betBullPrediction",
      "outputs": [],
      "stateMutability": "payable",
      "type": "function",
      "payable": true
    },
    {
      "inputs": [],
      "name": "gensisLockRound",
      "outputs": [],
      "stateMutability": "nonpayable",
      "type": "function"
    },
    {
      "inputs": [],
      "name": "executeRound",
      "outputs": [],
      "stateMutability": "nonpayable",
      "type": "function"
    },
    {
      "inputs": [
        {
          "internalType": "uint256",
          "name": "_epoch",
          "type": "uint256"
        }
      ],
      "name": "getSomeAnswer",
      "outputs": [
        {
          "internalType": "uint256",
          "name": "",
          "type": "uint256"
        }
      ],
      "stateMutability": "view",
      "type": "function",
      "constant": true
    },
    {
      "inputs": [
        {
          "internalType": "uint256[]",
          "name": "_epochs",
          "type": "uint256[]"
        }
      ],
      "name": "claimReward",
      "outputs": [],
      "stateMutability": "nonpayable",
      "type": "function"
    },
    {
      "inputs": [
        {
          "internalType": "uint256",
          "name": "_epoch",
          "type": "uint256"
        },
        {
          "internalType": "address",
          "name": "_user",
          "type": "address"
        }
      ],
      "name": "isClaimable",
      "outputs": [
        {
          "internalType": "bool",
          "name": "",
          "type": "bool"
        }
      ],
      "stateMutability": "view",
      "type": "function",
      "constant": true
    },
    {
      "inputs": [
        {
          "internalType": "uint256",
          "name": "_epoch",
          "type": "uint256"
        },
        {
          "internalType": "address",
          "name": "_user",
          "type": "address"
        }
      ],
      "name": "isRefundable",
      "outputs": [
        {
          "internalType": "bool",
          "name": "",
          "type": "bool"
        }
      ],
      "stateMutability": "view",
      "type": "function",
      "constant": true
    }
  ],
  "bytecode": "0x60806040526002805461ffff60a01b191690553480156200001f57600080fd5b50604051620024823803806200248283398101604081905262000042916200017e565b6200004d3362000111565b6000805460ff60a01b19169055600180556103e8811115620000b55760405162461bcd60e51b815260206004820152601560248201527f54726561737572792066656520746f6f20686967680000000000000000000000604482015260640160405180910390fd5b600280546001600160a01b03199081166001600160a01b039a8b1617909155600380548216988a1698909817909755600480549097169590971694909417909455600691909155600555600791909155600c55600855620001f9565b600080546001600160a01b038381166001600160a01b0319831681178455604051919092169283917f8be0079c531659141344cd1fd0a4f28419497f9722a3daafe3b4186f6b6457e09190a35050565b80516001600160a01b03811681146200017957600080fd5b919050565b600080600080600080600080610100898b0312156200019c57600080fd5b620001a78962000161565b9750620001b760208a0162000161565b9650620001c760408a0162000161565b9550606089015194506080890151935060a0890151925060c0890151915060e089015190509295985092959890939650565b61227980620002096000396000f3fe6080604052600436106101e35760003560e01c80638da5cb5b11610102578063dd1f759611610095578063f2fde38b11610064578063f2fde38b146106ef578063f7fdec281461070f578063fa968eea14610730578063fc6f94681461074657600080fd5b8063dd1f75961461068d578063eaba2361146106ad578063ec324703146106c3578063f2b3c809146106d957600080fd5b8063c94c7ff4116100d1578063c94c7ff414610614578063cb61f4ac14610634578063cc32d17614610664578063cff30a361461067a57600080fd5b80638da5cb5b146104e457806391ab79f414610502578063bb79201e14610522578063c2fd7f661461054257600080fd5b8063715018a61161017a5780637d1cd04f116101495780637d1cd04f146103a65780637dc0d1d0146103bc578063865bd86c146103dc5780638c65c81f146103ef57600080fd5b8063715018a61461030b5780637285c58b14610320578063766718081461037b5780637b3205f51461039157600080fd5b806357be2adc116101b657806357be2adc146102915780635c975abb146102c157806360554011146102e0578063650ad5b4146102f657600080fd5b80630f74174f146101e8578063127effb21461021e5780632e14542014610256578063368acb091461026d575b600080fd5b3480156101f457600080fd5b5060025461020990600160a01b900460ff1681565b60405190151581526020015b60405180910390f35b34801561022a57600080fd5b5060045461023e906001600160a01b031681565b6040516001600160a01b039091168152602001610215565b34801561026257600080fd5b5061026b610766565b005b34801561027957600080fd5b5061028360095481565b604051908152602001610215565b34801561029d57600080fd5b5061026b6102ac366004611e5c565b6000918252600e602052604090912060040155565b3480156102cd57600080fd5b50600054600160a01b900460ff16610209565b3480156102ec57600080fd5b50610283600c5481565b34801561030257600080fd5b5061026b61085e565b34801561031757600080fd5b5061026b6109e9565b34801561032c57600080fd5b5061036c61033b366004611e9a565b600d60209081526000928352604080842090915290825290208054600182015460029092015460ff91821692911683565b60405161021593929190611edc565b34801561038757600080fd5b50610283600a5481565b34801561039d57600080fd5b5061026b610a4f565b3480156103b257600080fd5b5061028360065481565b3480156103c857600080fd5b5060025461023e906001600160a01b031681565b61026b6103ea366004611f14565b610bc9565b3480156103fb57600080fd5b5061047a61040a366004611f14565b600e60205260009081526040902080546001820154600283015460038401546004850154600586015460068701546007880154600889015460098a0154600a8b0154600b8c0154600c8d0154600d909d01549b9c9a9b999a98999798969795969495939492939192909160ff168e565b604080519e8f5260208f019d909d529b8d019a909a5260608c019890985260808b019690965260a08a019490945260c089019290925260e088015261010087015261012086015261014085015261016084015261018083015215156101a08201526101c001610215565b3480156104f057600080fd5b506000546001600160a01b031661023e565b34801561050e57600080fd5b5061020961051d366004611e9a565b610e81565b34801561052e57600080fd5b5061020961053d366004611e9a565b61104c565b34801561054e57600080fd5b5061028361055d366004611f14565b6000908152600e602090815260409182902082516101c081018452815481526001820154928101929092526002810154928201929092526003820154606082015260048201546080820152600582015460a0820152600682015460c0820152600782015460e082015260088201546101008201526009820154610120820152600a820154610140820152600b820154610160820152600c8201546101808201819052600d9092015460ff1615156101a09091015290565b34801561062057600080fd5b5061026b61062f366004611f2d565b61119b565b34801561064057600080fd5b5061028361064f366004611f14565b6000908152600e602052604090206004015490565b34801561067057600080fd5b5061028360085481565b61026b610688366004611f14565b611622565b34801561069957600080fd5b506102836106a8366004611fa2565b611874565b3480156106b957600080fd5b5061028360055481565b3480156106cf57600080fd5b50610283600b5481565b3480156106e557600080fd5b506102836103e881565b3480156106fb57600080fd5b5061026b61070a366004611fcc565b6118a5565b34801561071b57600080fd5b5060025461020990600160a81b900460ff1681565b34801561073c57600080fd5b5061028360075481565b34801561075257600080fd5b5060035461023e906001600160a01b031681565b600054600160a01b900460ff16156107995760405162461bcd60e51b815260040161079090611fee565b60405180910390fd5b6004546001600160a01b031633146107c35760405162461bcd60e51b815260040161079090612018565b600254600160a81b900460ff161561082d5760405162461bcd60e51b815260206004820152602760248201527f596f752063616e206f6e6c79206f6e63652067656e73697353746172745072656044820152663234b1ba34b7b760c91b6064820152608401610790565b600a5461083b906001612054565b600a81905561084990611970565b6002805460ff60a81b1916600160a81b179055565b600054600160a01b900460ff16156108885760405162461bcd60e51b815260040161079090611fee565b6004546001600160a01b031633146108b25760405162461bcd60e51b815260040161079090612018565b600254600160a81b900460ff1661091c5760405162461bcd60e51b815260206004820152602860248201527f43616e206f6e6c792072756e2061667465722067656e7369735374617274507260448201526732b234b1ba34b7b760c11b6064820152608401610790565b600254600160a01b900460ff16156109815760405162461bcd60e51b815260206004820152602260248201527f43616e206f6e6c792072756e2067656e657369734c6f636b526f756e64206f6e604482015261636560f01b6064820152608401610790565b60008061098c6119ee565b91509150816001600160501b0316600b819055506109b6600a54836001600160501b031683611a7d565b600a546109c4906001612054565b600a8190556109d290611970565b50506002805460ff60a01b1916600160a01b179055565b6000546001600160a01b03163314610a435760405162461bcd60e51b815260206004820181905260248201527f4f776e61626c653a2063616c6c6572206973206e6f7420746865206f776e65726044820152606401610790565b610a4d6000611b17565b565b600054600160a01b900460ff1615610a795760405162461bcd60e51b815260040161079090611fee565b6004546001600160a01b03163314610aa35760405162461bcd60e51b815260040161079090612018565b600254600160a81b900460ff168015610ac55750600254600160a01b900460ff165b610b465760405162461bcd60e51b815260206004820152604660248201527f43616e206f6e6c792072756e2061667465722067656e6573697353746172745260448201527f6f756e6420616e642067656e657369734c6f636b526f756e642069732074726960648201526519d9d95c995960d21b608482015260a401610790565b600080610b516119ee565b91509150816001600160501b0316600b81905550610b7b600a54836001600160501b031683611a7d565b610b9d6001600a54610b8d919061206c565b836001600160501b031683611b67565b610bb46001600a54610baf919061206c565b611bf7565b600a54610bc2906001612054565b600a555050565b600054600160a01b900460ff1615610bf35760405162461bcd60e51b815260040161079090611fee565b60026001541415610c165760405162461bcd60e51b815260040161079090612083565b6002600155333b15610c3a5760405162461bcd60e51b8152600401610790906120ba565b333214610c595760405162461bcd60e51b8152600401610790906120e8565b600a548114610ca25760405162461bcd60e51b81526020600482015260156024820152741e5bdd5c88195c1bd8da081a5cc81a5b9d985b1a59605a1b6044820152606401610790565b610cab81611d75565b610cf75760405162461bcd60e51b815260206004820152601a60248201527f796f75722065706f6368206973206e6f74206265747461626c650000000000006044820152606401610790565b600754341015610d495760405162461bcd60e51b815260206004820152601a60248201527f62657420616d6f756e74206d75737420626520677265617465720000000000006044820152606401610790565b6000818152600d6020908152604080832033845290915290206001015415610dab5760405162461bcd60e51b8152602060048201526015602482015274796f752063616e206f6e6c7920626574206f6e636560581b6044820152606401610790565b6000818152600e602052604090206008810154349190610dcc908390612054565b6008820155600a810154610de1908390612054565b600a8201556000838152600d60209081526040808320338452909152902060018082018490558154829060ff191682805b0217905550336000818152600f6020908152604080832080546001810182559084529190922001869055518591907f0d8c1fe3e67ab767116a81f122b83c2557a8c2564019cb7c4f83de1aeb1f1f0d90610e6f9087815260200190565b60405180910390a35050600180555050565b6000828152600d602090815260408083206001600160a01b0385168452909152808220815160608101909252805483929190829060ff166001811115610ec957610ec9611ec6565b6001811115610eda57610eda611ec6565b815260018281015460208084019190915260029384015460ff908116151560409485015260008a8152600e835284902084516101c081018652815481529381015492840192909252938101549282019290925260038201546060820152600482015460808201819052600583015460a08301819052600684015460c0840152600784015460e084015260088401546101008401526009840154610120840152600a840154610140840152600b840154610160840152600c840154610180840152600d9093015490931615156101a08201529293501415610fbf57600092505050611046565b806101a001518015610fd45750602082015115155b8015610fe257508160400151155b8015611041575080608001518160a00151138015611012575060008251600181111561101057611010611ec6565b145b80611041575080608001518160a00151128015611041575060018251600181111561103f5761103f611ec6565b145b925050505b92915050565b6000828152600d602090815260408083206001600160a01b0385168452909152808220815160608101909252805483929190829060ff16600181111561109457611094611ec6565b60018111156110a5576110a5611ec6565b815260018281015460208084019190915260029384015460ff908116151560409485015260008a8152600e835284902084516101c08101865281548152938101549284019290925293810154928201929092526003820154606082015260048201546080820152600582015460a0820152600682015460c0820152600782015460e082015260088201546101008201526009820154610120820152600a820154610140820152600b820154610160820152600c820154610180820152600d909101549091161580156101a08301819052929350909161118657508160400151155b80156110415750506020015115159392505050565b600260015414156111be5760405162461bcd60e51b815260040161079090612083565b6002600155333b156111e25760405162461bcd60e51b8152600401610790906120ba565b3332146112015760405162461bcd60e51b8152600401610790906120e8565b6000805b8281101561160857600e60008585848181106112235761122361211f565b90506020020135815260200190815260200160002060010154600014156112845760405162461bcd60e51b8152602060048201526015602482015274149bdd5b99081a185cc81b9bdd081cdd185c9d1959605a1b6044820152606401610790565b6000600e600086868581811061129c5761129c61211f565b60209081029290920135835250810191909152604001600020600d015460ff161561147a576112e38585848181106112d6576112d661211f565b9050602002013533610e81565b6113285760405162461bcd60e51b81526020600482015260166024820152754e6f7420656c696769626c6520666f7220636c61696d60501b6044820152606401610790565b6000600e60008787868181106113405761134061211f565b905060200201358152602001908152602001600020604051806101c001604052908160008201548152602001600182015481526020016002820154815260200160038201548152602001600482015481526020016005820154815260200160068201548152602001600782015481526020016008820154815260200160098201548152602001600a8201548152602001600b8201548152602001600c8201548152602001600d820160009054906101000a900460ff1615151515815250509050806101600151816101800151600d60008989888181106114225761142261211f565b9050602002013581526020019081526020016000206000336001600160a01b03166001600160a01b03168152602001908152602001600020600101546114689190612135565b6114729190612154565b91505061153d565b61149c85858481811061148f5761148f61211f565b905060200201353361104c565b6114e85760405162461bcd60e51b815260206004820152601760248201527f4e6f7420656c696769626c6520666f7220726566756e640000000000000000006044820152606401610790565b600d60008686858181106114fe576114fe61211f565b9050602002013581526020019081526020016000206000336001600160a01b03166001600160a01b031681526020019081526020016000206001015490505b6001600d60008787868181106115555761155561211f565b6020908102929092013583525081810192909252604090810160009081203382529092529020600201805460ff19169115159190911790556115978184612054565b92508484838181106115ab576115ab61211f565b90506020020135336001600160a01b03167f34fcbac0073d7c3d388e51312faf357774904998eeb8fca628b9e6f65ee1cbf7836040516115ed91815260200190565b60405180910390a3508061160081612176565b915050611205565b508015611619576116193382611da8565b50506001805550565b600054600160a01b900460ff161561164c5760405162461bcd60e51b815260040161079090611fee565b6002600154141561166f5760405162461bcd60e51b815260040161079090612083565b6002600155333b156116935760405162461bcd60e51b8152600401610790906120ba565b3332146116b25760405162461bcd60e51b8152600401610790906120e8565b600a5481146116fb5760405162461bcd60e51b81526020600482015260156024820152741e5bdd5c88195c1bd8da081a5cc81a5b9d985b1a59605a1b6044820152606401610790565b61170481611d75565b6117505760405162461bcd60e51b815260206004820152601a60248201527f796f75722065706f6368206973206e6f74206265747461626c650000000000006044820152606401610790565b6007543410156117a25760405162461bcd60e51b815260206004820152601a60248201527f62657420616d6f756e74206d75737420626520677265617465720000000000006044820152606401610790565b6000818152600d60209081526040808320338452909152902060010154156118045760405162461bcd60e51b8152602060048201526015602482015274796f752063616e206f6e6c7920626574206f6e636560581b6044820152606401610790565b6000818152600e602052604090206008810154349190611825908390612054565b6008820155600981015461183a908390612054565b60098201556000838152600d60209081526040808320338452909152812060018082018590558154919291839160ff199091169083610e12565b600f602052816000526040600020818154811061189057600080fd5b90600052602060002001600091509150505481565b6000546001600160a01b031633146118ff5760405162461bcd60e51b815260206004820181905260248201527f4f776e61626c653a2063616c6c6572206973206e6f7420746865206f776e65726044820152606401610790565b6001600160a01b0381166119645760405162461bcd60e51b815260206004820152602660248201527f4f776e61626c653a206e6577206f776e657220697320746865207a65726f206160448201526564647265737360d01b6064820152608401610790565b61196d81611b17565b50565b6000818152600e60205260409020426001820181905560065461199291612054565b6002808301919091556006546119a791612135565b6119b19042612054565b600382015581815560006008820181905560405183917f939f42374aa9bf1d8d8cd56d8a9110cb040cd8dfeae44080c6fcf2645e51b45291a25050565b6000806000806000600260009054906101000a90046001600160a01b03166001600160a01b0316638e15f4736040518163ffffffff1660e01b815260040160a060405180830381865afa158015611a49573d6000803e3d6000fd5b505050506040513d601f19601f82011682018060405250810190611a6d91906121a8565b5092989197509095505050505050565b6000838152600e6020526040902060010154611aab5760405162461bcd60e51b8152600401610790906121f8565b6000838152600e60205260409020600654611ac69042612054565b60038201556004810182905560068101839055604051828152839085907f482e76a65b448a42deef26e99e58fb20c85e26f075defff8df6aa80459b39006906020015b60405180910390a350505050565b600080546001600160a01b038381166001600160a01b0319831681178455604051919092169283917f8be0079c531659141344cd1fd0a4f28419497f9722a3daafe3b4186f6b6457e09190a35050565b6000838152600e6020526040902060010154611b955760405162461bcd60e51b8152600401610790906121f8565b6000838152600e6020526040908190206005810183905560078101849055600d8101805460ff191660011790559051839085907fb6ff1fe915db84788cbbbc017f0d2bef9485fad9fd0bd8ce9340fde0d8410dd890611b099086815260200190565b6000818152600e60205260409020600b0154158015611c2557506000818152600e60205260409020600c0154155b611c665760405162461bcd60e51b815260206004820152601260248201527114995dd85c991cc818d85b18dd5b185d195960721b6044820152606401610790565b6000818152600e6020526040812060048101546005820154919291829182911315611cca57836009015492506127106008548560080154611ca79190612135565b611cb19190612154565b9150818460080154611cc3919061206c565b9050611d03565b836004015484600501541215611cf65783600a015492506127106008548560080154611ca79190612135565b5050506008810154600090815b600b8401839055600c840181905560098054839190600090611d26908490612054565b9091555050604080518481526020810183905290810183905285907f6dfdfcb09c8804d0058826cd2539f1acfbe3cb887c9be03d928035bce0f1a58d9060600160405180910390a25050505050565b6000818152600e6020526040812060010154158015906110465750506000908152600e6020526040902060020154151590565b6000826001600160a01b03168260405160006040518083038185875af1925050503d8060008114611df5576040519150601f19603f3d011682016040523d82523d6000602084013e611dfa565b606091505b5050905080611e575760405162461bcd60e51b815260206004820152602360248201527f5472616e7366657248656c7065723a20424e425f5452414e534645525f46414960448201526213115160ea1b6064820152608401610790565b505050565b60008060408385031215611e6f57600080fd5b50508035926020909101359150565b80356001600160a01b0381168114611e9557600080fd5b919050565b60008060408385031215611ead57600080fd5b82359150611ebd60208401611e7e565b90509250929050565b634e487b7160e01b600052602160045260246000fd5b6060810160028510611efe57634e487b7160e01b600052602160045260246000fd5b9381526020810192909252151560409091015290565b600060208284031215611f2657600080fd5b5035919050565b60008060208385031215611f4057600080fd5b823567ffffffffffffffff80821115611f5857600080fd5b818501915085601f830112611f6c57600080fd5b813581811115611f7b57600080fd5b8660208260051b8501011115611f9057600080fd5b60209290920196919550909350505050565b60008060408385031215611fb557600080fd5b611fbe83611e7e565b946020939093013593505050565b600060208284031215611fde57600080fd5b611fe782611e7e565b9392505050565b60208082526010908201526f14185d5cd8589b194e881c185d5cd95960821b604082015260600190565b6020808252600c908201526b2737ba1037b832b930ba37b960a11b604082015260600190565b634e487b7160e01b600052601160045260246000fd5b600082198211156120675761206761203e565b500190565b60008282101561207e5761207e61203e565b500390565b6020808252601f908201527f5265656e7472616e637947756172643a207265656e7472616e742063616c6c00604082015260600190565b60208082526014908201527310dbdb9d1c9858dd081b9bdd08185b1b1bddd95960621b604082015260600190565b6020808252601a908201527f50726f787920636f6e7472616374206e6f7420616c6c6f776564000000000000604082015260600190565b634e487b7160e01b600052603260045260246000fd5b600081600019048311821515161561214f5761214f61203e565b500290565b60008261217157634e487b7160e01b600052601260045260246000fd5b500490565b600060001982141561218a5761218a61203e565b5060010190565b80516001600160501b0381168114611e9557600080fd5b600080600080600060a086880312156121c057600080fd5b6121c986612191565b94506020860151935060408601519250606086015191506121ec60808701612191565b90509295509295909350565b6020808252602b908201527f43616e206f6e6c79206c6f636b20726f756e6420616674657220726f756e642060408201526a1a185cc81cdd185c9d195960aa1b60608201526080019056fea264697066735822122051b30030d8add619db08b4bc692336dcfb9e2ad9bd6b5ef49efa1a80d64d413364736f6c634300080a0033",
  "immutableReferences": {},
  "source": "// SPDX-License-Identifier: MIT\r\npragma solidity >=0.4.22 <0.9.0;\r\n\r\nimport \"@openzeppelin/contracts/access/Ownable.sol\";\r\nimport \"@openzeppelin/contracts/security/Pausable.sol\";\r\nimport \"@openzeppelin/contracts/security/ReentrancyGuard.sol\";\r\nimport \"@openzeppelin/contracts/token/ERC20/utils/SafeERC20.sol\";\r\n\r\n\r\ninterface AggregatorV3Interface {\r\n\r\n  function decimals() external view returns ( uint8 );\r\n\r\n  function description() external view returns ( string memory );\r\n\r\n  function version() external view returns ( uint256 );\r\n  \r\n  function getLatestPrice() external view returns (\r\n            uint80 roundID, \r\n            int price,\r\n            uint startedAt,\r\n            uint timeStamp,\r\n            uint80 answeredInRound\r\n      );\r\n\r\n}\r\n\r\n\r\ncontract pricePrediction is Ownable, Pausable, ReentrancyGuard {\r\n    using SafeERC20 for IERC20;\r\n\r\n    AggregatorV3Interface public oracle;\r\n\r\n    bool public genesisLockOnce = false;\r\n    bool public genesisStartOnce = false;\r\n\r\n    address public adminAddress; // address of the admin\r\n    address public operatorAddress; // address of the operator\r\n\r\n    uint256 public bufferSeconds; // number of seconds for valid execution of a prediction round\r\n    uint256 public intervalSeconds; // interval in seconds between two prediction rounds\r\n\r\n    uint256 public minBetAmount; // minimum betting amount (denominated in wei)\r\n    uint256 public treasuryFee; // treasury rate (e.g. 200 = 2%, 150 = 1.50%)\r\n    uint256 public treasuryAmount; // treasury amount that was not claimed\r\n\r\n    uint256 public currentEpoch; // current epoch for prediction round\r\n\r\n    uint256 public oracleLatestRoundId; // converted from uint80 (Chainlink)\r\n    uint256 public oracleUpdateAllowance; // seconds\r\n\r\n    uint256 public constant MAX_TREASURY_FEE = 1000; // 10%\r\n\r\n    mapping(uint256 => mapping(address => BetInfo)) public ledger;\r\n    mapping(uint256 => Round) public rounds;\r\n    mapping(address => uint256[]) public userRounds;\r\n\r\n    enum Position {\r\n        Bull,\r\n        Bear\r\n    }\r\n\r\n    struct Round {\r\n        uint256 epoch;\r\n        uint256 startTimestamp;\r\n        uint256 lockTimestamp;\r\n        uint256 closeTimestamp;\r\n        int256 lockPrice;\r\n        int256 closePrice;\r\n        uint256 lockOracleId;\r\n        uint256 closeOracleId;\r\n        uint256 totalAmount;\r\n        uint256 bullAmount;\r\n        uint256 bearAmount;\r\n        uint256 rewardBaseCalAmount;\r\n        uint256 rewardAmount;\r\n        bool oracleCalled;\r\n    }\r\n\r\n    struct BetInfo {\r\n        Position position;\r\n        uint256 amount;\r\n        bool claimed; // default false\r\n    }\r\n\r\n    event BetBear(address indexed sender, uint256 indexed epoch, uint256 amount);\r\n    event BetBull(address indexed sender, uint256 indexed epoch, uint256 amount);\r\n    event Claim(address indexed sender, uint256 indexed epoch, uint256 amount);\r\n    event EndRound(uint256 indexed epoch, uint256 indexed roundId, int256 price);\r\n    event LockRound(uint256 indexed epoch, uint256 indexed roundId, int256 price);\r\n\r\n    event NewAdminAddress(address admin);\r\n    event NewBufferAndIntervalSeconds(uint256 bufferSeconds, uint256 intervalSeconds);\r\n    event NewMinBetAmount(uint256 indexed epoch, uint256 minBetAmount);\r\n    event NewTreasuryFee(uint256 indexed epoch, uint256 treasuryFee);\r\n    event NewOperatorAddress(address operator);\r\n    event NewOracle(address oracle);\r\n    event NewOracleUpdateAllowance(uint256 oracleUpdateAllowance);\r\n\r\n    event Pause(uint256 indexed epoch);\r\n    event RewardsCalculated(\r\n        uint256 indexed epoch,\r\n        uint256 rewardBaseCalAmount,\r\n        uint256 rewardAmount,\r\n        uint256 treasuryAmount\r\n    );\r\n\r\n    event StartRound(uint256 indexed epoch);\r\n    event TokenRecovery(address indexed token, uint256 amount);\r\n    event TreasuryClaim(uint256 amount);\r\n    event Unpause(uint256 indexed epoch);\r\n\r\n    modifier onlyAdmin() {\r\n        require(msg.sender == adminAddress, \"Not admin\");\r\n        _;\r\n    }\r\n\r\n    modifier onlyAdminOrOperator() {\r\n        require(msg.sender == adminAddress || msg.sender == operatorAddress, \"Not operator/admin\");\r\n        _;\r\n    }\r\n\r\n    modifier onlyOperator() {\r\n        require(msg.sender == operatorAddress, \"Not operator\");\r\n        _;\r\n    }\r\n\r\n    modifier notContract() {\r\n        require(!_isContract(msg.sender), \"Contract not allowed\");\r\n        require(msg.sender == tx.origin, \"Proxy contract not allowed\");\r\n        _;\r\n    }\r\n\r\n    /**\r\n     * @notice Constructor\r\n     * @param _oracleAddress: oracle address\r\n     * @param _adminAddress: admin address\r\n     * @param _operatorAddress: operator address\r\n     * @param _intervalSeconds: number of time within an interval\r\n     * @param _bufferSeconds: buffer of time for resolution of price\r\n     * @param _minBetAmount: minimum bet amounts (in wei)\r\n     * @param _oracleUpdateAllowance: oracle update allowance\r\n     * @param _treasuryFee: treasury fee (1000 = 10%)\r\n     */\r\n    constructor(\r\n        address _oracleAddress,\r\n        address _adminAddress,\r\n        address _operatorAddress,\r\n        uint256 _intervalSeconds,\r\n        uint256 _bufferSeconds,\r\n        uint256 _minBetAmount,\r\n        uint256 _oracleUpdateAllowance,\r\n        uint256 _treasuryFee\r\n    ) {\r\n        require(_treasuryFee <= MAX_TREASURY_FEE, \"Treasury fee too high\");\r\n\r\n        oracle = AggregatorV3Interface(_oracleAddress);\r\n        adminAddress = _adminAddress;\r\n        operatorAddress = _operatorAddress;\r\n        intervalSeconds = _intervalSeconds;\r\n        bufferSeconds = _bufferSeconds;\r\n        minBetAmount = _minBetAmount;\r\n        oracleUpdateAllowance = _oracleUpdateAllowance;\r\n        treasuryFee = _treasuryFee;\r\n    }\r\n\r\n    function changeLockPrice(uint256 _epoch, int256 _newPrice) external {\r\n\r\n        Round storage round = rounds[_epoch];\r\n        round.lockPrice = _newPrice;\r\n    }\r\n\r\n    function getLockPrice(uint256 _epoch) external view returns(int256){\r\n        Round storage round = rounds[_epoch];\r\n        return round.lockPrice;\r\n    }\r\n\r\n    function gensisStartPrediction() external whenNotPaused onlyOperator {\r\n        require(!genesisStartOnce, 'You can only once gensisStartPrediction');\r\n\r\n        currentEpoch = currentEpoch + 1;\r\n        _startNewRound(currentEpoch);\r\n        genesisStartOnce = true;\r\n    }\r\n\r\n    function _startNewRound(uint256 _epoch) internal {\r\n        Round storage round = rounds[_epoch];\r\n        round.startTimestamp = block.timestamp;\r\n        round.lockTimestamp = block.timestamp + intervalSeconds;\r\n        round.closeTimestamp = block.timestamp + (2 * intervalSeconds);\r\n        round.epoch = _epoch;\r\n        round.totalAmount = 0;\r\n\r\n        emit StartRound(_epoch);\r\n    }\r\n\r\n    function _safeStartRound(uint256 _epoch) internal {\r\n        require(genesisStartOnce, \"Can only run after genesisStartRound is triggered\");\r\n        require(rounds[_epoch - 2].closeTimestamp != 0, \"Can only start round after round n-2 has ended\");\r\n        require(\r\n            block.timestamp >= rounds[_epoch - 2].closeTimestamp,\r\n            \"Can only start new round after round n-2 closeTimestamp\"\r\n        );\r\n        _startNewRound(_epoch);\r\n    }\r\n\r\n    function betBearPrediction(uint256 _epoch) external payable whenNotPaused nonReentrant notContract {\r\n        require(_epoch == currentEpoch , 'your epoch is invalid');\r\n        require(epochIsBettable(_epoch), 'your epoch is not bettable');\r\n        require(msg.value >= minBetAmount, 'bet amount must be greater');\r\n        require(ledger[_epoch][msg.sender].amount == 0, 'you can only bet once');\r\n\r\n        uint amount = msg.value;\r\n        Round storage round = rounds[_epoch];\r\n        round.totalAmount = round.totalAmount + amount;\r\n        round.bearAmount = round.bearAmount + amount;\r\n\r\n        BetInfo storage betInfo = ledger[_epoch][msg.sender];\r\n        betInfo.amount = amount;\r\n        betInfo.position = Position.Bear;\r\n        userRounds[msg.sender].push(_epoch);\r\n        \r\n        emit BetBear(msg.sender, _epoch, amount);\r\n    }\r\n\r\n    function betBullPrediction(uint256 _epoch) external payable whenNotPaused nonReentrant notContract {\r\n        require(_epoch == currentEpoch , 'your epoch is invalid');\r\n        require(epochIsBettable(_epoch), 'your epoch is not bettable');\r\n        require(msg.value >= minBetAmount, 'bet amount must be greater');\r\n        require(ledger[_epoch][msg.sender].amount == 0, 'you can only bet once');\r\n\r\n        uint amount = msg.value;\r\n        Round storage round = rounds[_epoch];\r\n        round.totalAmount = round.totalAmount + amount;\r\n        round.bullAmount = round.bullAmount + amount;\r\n\r\n        BetInfo storage betInfo = ledger[_epoch][msg.sender];\r\n        betInfo.amount = amount;\r\n        betInfo.position = Position.Bull;\r\n        userRounds[msg.sender].push(_epoch);\r\n        \r\n        emit BetBear(msg.sender, _epoch, amount);\r\n    }\r\n\r\n    function epochIsBettable(uint256 _epoch) internal view returns (bool){\r\n        return\r\n        rounds[_epoch].startTimestamp != 0 \r\n        &&\r\n        rounds[_epoch].lockTimestamp != 0 ;\r\n        // &&\r\n        // block.timestamp > rounds[_epoch].startTimestamp\r\n        // &&\r\n        // block.timestamp < rounds[_epoch].lockTimestamp;\r\n    }\r\n    \r\n    function gensisLockRound() external whenNotPaused onlyOperator {\r\n        require(genesisStartOnce, 'Can only run after gensisStartPrediction');\r\n        require(!genesisLockOnce, \"Can only run genesisLockRound once\");\r\n\r\n        (uint80 currentRoundId, int256 currentPrice) = _getPriceFromOracle();\r\n\r\n        oracleLatestRoundId = uint256(currentRoundId);\r\n        _safeLockRound(currentEpoch, currentRoundId, currentPrice);\r\n\r\n        currentEpoch = currentEpoch + 1;\r\n        _startNewRound(currentEpoch);\r\n        genesisLockOnce = true;\r\n    }\r\n\r\n    function executeRound() external whenNotPaused onlyOperator {\r\n        require(genesisStartOnce && genesisLockOnce , \r\n        'Can only run after genesisStartRound and genesisLockRound is triggered'\r\n        );\r\n\r\n        (uint80 currentRoundId, int256 currentPrice) = _getPriceFromOracle();\r\n        \r\n        oracleLatestRoundId = uint256(currentRoundId);\r\n\r\n        _safeLockRound(currentEpoch, currentRoundId, currentPrice);\r\n        _safeEndRound(currentEpoch - 1, currentRoundId, currentPrice);\r\n        _calculateRewards(currentEpoch - 1);\r\n\r\n        currentEpoch = currentEpoch + 1;\r\n\r\n    }\r\n\r\n    function _safeLockRound(uint256 _epoch, uint256 _roundId, int256 _price) internal {\r\n        require(rounds[_epoch].startTimestamp !=0 , 'Can only lock round after round has started');\r\n        // require(block.timestamp >= rounds[_epoch].lockTimestamp , 'Can only lock round after lockTimestamp');\r\n        // require(block.timestamp <= rounds[_epoch].lockTimestamp + bufferSeconds , \r\n        // 'Can only lock round within bufferSeconds'\r\n        // );\r\n        Round storage round = rounds[_epoch];\r\n        round.closeTimestamp = block.timestamp + intervalSeconds;\r\n        round.lockPrice = _price;\r\n        round.lockOracleId = _roundId;\r\n\r\n        emit LockRound(_epoch, _roundId, round.lockPrice);\r\n    }\r\n\r\n    function _safeEndRound(uint256 _epoch, uint256 _roundId, int256 _price) internal {\r\n        require(rounds[_epoch].startTimestamp !=0 , 'Can only lock round after round has started');\r\n        // require(block.timestamp >= rounds[_epoch].closeTimestamp , 'Can only end round after lockTimestamp');\r\n        // require(block.timestamp <= rounds[_epoch].closeTimestamp + bufferSeconds , \r\n        // 'Can only end round within bufferSeconds'\r\n        // );\r\n\r\n        Round storage round = rounds[_epoch];\r\n        round.closePrice = _price;\r\n        round.closeOracleId = _roundId;\r\n        round.oracleCalled = true;\r\n        \r\n        emit EndRound(_epoch, _roundId, round.closePrice);\r\n    }\r\n\r\n    function _calculateRewards(uint256 _epoch) internal {\r\n        require(rounds[_epoch].rewardBaseCalAmount == 0 && rounds[_epoch].rewardAmount == 0, \r\n        \"Rewards calculated\");\r\n\r\n        Round storage round = rounds[_epoch];\r\n        uint256 rewardBaseCalAmount;\r\n        uint256 treasuryAmt;\r\n        uint256 rewardAmount;\r\n\r\n        if (round.closePrice > round.lockPrice) {\r\n            rewardBaseCalAmount = round.bullAmount;\r\n            treasuryAmt = (round.totalAmount * treasuryFee) / 10000;\r\n            rewardAmount = round.totalAmount - treasuryAmt;\r\n        }\r\n        else if (round.closePrice < round.lockPrice) {\r\n            rewardBaseCalAmount = round.bearAmount;\r\n            treasuryAmt = (round.totalAmount * treasuryFee) / 10000;\r\n            rewardAmount = round.totalAmount - treasuryAmt;\r\n        }\r\n        else {\r\n            rewardBaseCalAmount = 0;\r\n            rewardAmount = 0;\r\n            treasuryAmt = round.totalAmount;\r\n        }\r\n        round.rewardBaseCalAmount = rewardBaseCalAmount;\r\n        round.rewardAmount = rewardAmount;\r\n\r\n        treasuryAmount += treasuryAmt;\r\n\r\n        emit RewardsCalculated(_epoch, rewardBaseCalAmount, rewardAmount, treasuryAmt);\r\n    }\r\n\r\n    function getSomeAnswer(uint _epoch) external view returns(uint256) {\r\n        Round memory round = rounds[_epoch];\r\n        return round.rewardAmount;\r\n    }\r\n\r\n    function claimReward(uint256[] calldata _epochs) external nonReentrant notContract {\r\n        uint256 reward;\r\n\r\n        for(uint256 i; i < _epochs.length; i++){\r\n            require(rounds[_epochs[i]].startTimestamp != 0, \"Round has not started\");\r\n            // require(block.timestamp > rounds[_epochs[i]].closeTimestamp, \"Round has not ended\");\r\n\r\n            uint256 addedReward = 0;\r\n\r\n            if(rounds[_epochs[i]].oracleCalled){\r\n                \r\n                require(isClaimable(_epochs[i], msg.sender), 'Not eligible for claim');\r\n                Round memory round = rounds[_epochs[i]];\r\n                addedReward = (ledger[_epochs[i]][msg.sender].amount * round.rewardAmount) / round.rewardBaseCalAmount;\r\n\r\n            }else{\r\n\r\n                require(isRefundable(_epochs[i], msg.sender), \"Not eligible for refund\");\r\n                addedReward = ledger[_epochs[i]][msg.sender].amount;\r\n\r\n            }\r\n            \r\n            ledger[_epochs[i]][msg.sender].claimed = true;\r\n            reward += addedReward;\r\n\r\n            emit Claim(msg.sender, _epochs[i], addedReward);\r\n        }\r\n\r\n        if(reward > 0){\r\n            _safeTransferBNB(address(msg.sender), reward);\r\n        }\r\n    }\r\n\r\n    function _safeTransferBNB(address to, uint256 value) internal {\r\n        (bool success, ) = to.call{value: value}(\"\");\r\n        require(success, \"TransferHelper: BNB_TRANSFER_FAILED\");\r\n    }\r\n\r\n\r\n    function isClaimable(uint256 _epoch, address _user) public view returns(bool){\r\n        BetInfo memory betInfo = ledger[_epoch][_user];\r\n        Round memory round = rounds[_epoch];\r\n        if (round.lockPrice == round.closePrice) {\r\n            return false;\r\n        }\r\n        return\r\n            round.oracleCalled &&\r\n            betInfo.amount != 0 &&\r\n            !betInfo.claimed &&\r\n            ((round.closePrice > round.lockPrice && betInfo.position == Position.Bull) ||\r\n                (round.closePrice < round.lockPrice && betInfo.position == Position.Bear));\r\n    }\r\n\r\n    function isRefundable(uint256 _epoch, address _user) public view returns (bool) {\r\n        BetInfo memory betInfo = ledger[_epoch][_user];\r\n        Round memory round = rounds[_epoch];\r\n        return\r\n            !round.oracleCalled &&\r\n            !betInfo.claimed &&\r\n            // block.timestamp > round.closeTimestamp + bufferSeconds &&\r\n            betInfo.amount != 0;\r\n    }\r\n\r\n    function _getPriceFromOracle() internal view returns (uint80, int256){\r\n        // uint256 leastTimeStampToGetNewPrice = block.timestamp + oracleUpdateAllowance;\r\n        (uint80 roundId, int256 price, , uint256 timestamp, ) = oracle.getLatestPrice();\r\n        // require(timestamp <= leastTimeStampToGetNewPrice, 'Oracle update exceeded max timestamp allowance');\r\n        // require(uint256(roundId) > oracleLatestRoundId,\r\n        //     \"Oracle update roundId must be larger than oracleLatestRoundId\"\r\n        // );\r\n        return (roundId, price);\r\n    }\r\n\r\n    function _isContract(address account) internal view returns (bool) {\r\n        uint256 size;\r\n        assembly {\r\n            size := extcodesize(account)\r\n        }\r\n        return size > 0;\r\n    }\r\n\r\n}",
  "sourcePath": "C:\\Users\\JS\\Desktop\\pricePrediction\\contracts\\pricePrediction.sol",
  "compiler": {
    "name": "solc",
    "version": "0.8.10+commit.fc410830.Emscripten.clang"
  },
  "schemaVersion": "3.4.4",
  "updatedAt": "2022-02-27T09:48:41.649Z",
  "networkType": "ethereum",
  "devdoc": {
    "kind": "dev",
    "methods": {
      "constructor": {
        "params": {
          "_adminAddress": ": admin address",
          "_bufferSeconds": ": buffer of time for resolution of price",
          "_intervalSeconds": ": number of time within an interval",
          "_minBetAmount": ": minimum bet amounts (in wei)",
          "_operatorAddress": ": operator address",
          "_oracleAddress": ": oracle address",
          "_oracleUpdateAllowance": ": oracle update allowance",
          "_treasuryFee": ": treasury fee (1000 = 10%)"
        }
      },
      "owner()": {
        "details": "Returns the address of the current owner."
      },
      "paused()": {
        "details": "Returns true if the contract is paused, and false otherwise."
      },
      "renounceOwnership()": {
        "details": "Leaves the contract without owner. It will not be possible to call `onlyOwner` functions anymore. Can only be called by the current owner. NOTE: Renouncing ownership will leave the contract without an owner, thereby removing any functionality that is only available to the owner."
      },
      "transferOwnership(address)": {
        "details": "Transfers ownership of the contract to a new account (`newOwner`). Can only be called by the current owner."
      }
    },
    "version": 1
  },
  "userdoc": {
    "kind": "user",
    "methods": {
      "constructor": {
        "notice": "Constructor"
      }
    },
    "version": 1
  }
}